{
  "_format": "hh-sol-artifact-1",
  "contractName": "PoolAddressTokamak",
  "sourceName": "contracts/libraries/PoolAddressTokamak.sol",
  "abi": [
    {
      "inputs": [],
      "name": "POOL_INIT_CODE_HASH",
      "outputs": [
        {
          "internalType": "bytes32",
          "name": "",
          "type": "bytes32"
        }
      ],
      "stateMutability": "view",
      "type": "function"
    }
  ],
  "bytecode": "0x60a6610038600b82828239805160001a607314602b57634e487b7160e01b600052600060045260246000fd5b30600052607381538281f3fe730000000000000000000000000000000000000000301460806040526004361060335760003560e01c8063dc6fd8ab146038575b600080fd5b605e7fa598dd2fba360510c5a8f02f44423a4468e902df5857dbce3ca162a43a3a31ff81565b60405190815260200160405180910390f3fea26469706673582212204c977d58525b6761cddf22ecf722e53de70a18319ac7e2a1000a57722d4be8f664736f6c634300080f0033",
  "linkReferences": {},
  "deployedLinkReferences": {}
}