{
  "_format": "hh-sol-artifact-1",
  "contractName": "L1toL2DepositAndMessage",
  "sourceName": "contracts/L1/L1toL2DepositAndMessage.sol",
  "abi": [
    {
      "inputs": [
        {
          "internalType": "address",
          "name": "tonAddress",
          "type": "address"
        }
      ],
      "stateMutability": "nonpayable",
      "type": "constructor"
    },
    {
      "inputs": [
        {
          "internalType": "address",
          "name": "sender",
          "type": "address"
        },
        {
          "internalType": "address",
          "name": "spender",
          "type": "address"
        },
        {
          "internalType": "uint256",
          "name": "amount",
          "type": "uint256"
        },
        {
          "internalType": "bytes",
          "name": "data",
          "type": "bytes"
        }
      ],
      "name": "onApprove",
      "outputs": [
        {
          "internalType": "bool",
          "name": "",
          "type": "bool"
        }
      ],
      "stateMutability": "nonpayable",
      "type": "function"
    },
    {
      "inputs": [
        {
          "internalType": "bytes4",
          "name": "interfaceId",
          "type": "bytes4"
        }
      ],
      "name": "supportsInterface",
      "outputs": [
        {
          "internalType": "bool",
          "name": "",
          "type": "bool"
        }
      ],
      "stateMutability": "view",
      "type": "function"
    },
    {
      "inputs": [],
      "name": "ton",
      "outputs": [
        {
          "internalType": "address",
          "name": "",
          "type": "address"
        }
      ],
      "stateMutability": "view",
      "type": "function"
    }
  ],
  "bytecode": "0x608060405234801561001057600080fd5b506040516110cb3803806110cb83398101604081905261002f916100e3565b600180546001600160a01b0319166001600160a01b03831617905561005a632139e50b60e11b610060565b50610113565b6001600160e01b031980821690036100be5760405162461bcd60e51b815260206004820152601c60248201527f4552433136353a20696e76616c696420696e7465726661636520696400000000604482015260640160405180910390fd5b6001600160e01b0319166000908152602081905260409020805460ff19166001179055565b6000602082840312156100f557600080fd5b81516001600160a01b038116811461010c57600080fd5b9392505050565b610fa9806101226000396000f3fe608060405234801561001057600080fd5b50600436106100415760003560e01c806301ffc9a7146100465780634273ca161461006e578063cc48b94714610081575b600080fd5b610059610054366004610ce9565b6100ac565b60405190151581526020015b60405180910390f35b61005961007c366004610d32565b6100ec565b600154610094906001600160a01b031681565b6040516001600160a01b039091168152602001610065565b60006301ffc9a760e01b6001600160e01b0319831614806100e657506001600160e01b0319821660009081526020819052604090205460ff165b92915050565b6001546000906001600160a01b038781169116146101515760405162461bcd60e51b815260206004820152601a60248201527f73656e646572206973206e6f7420544f4e20636f6e747261637400000000000060448201526064015b60405180910390fd5b6058821161018e5760405162461bcd60e51b815260206004820152600a60248201526977726f6e67206461746160b01b6044820152606401610148565b60006101d4600085858080601f01602080910402602001604051908101604052809392919081815260200183838082843760009201919091525092939250506104f59050565b9050600061021c603c86868080601f01602080910402602001604051908101604052809392919081815260200183838082843760009201919091525092939250506104f59050565b905060008690506000610269601488888080601f01602080910402602001604051908101604052809392919081815260200183838082843760009201919091525092939250506104f59050565b905060006102b1602889898080601f01602080910402602001604051908101604052809392919081815260200183838082843760009201919091525092939250506104f59050565b905060006102f960508a8a8080601f01602080910402602001604051908101604052809392919081815260200183838082843760009201919091525092939250506105a99050565b9050600061034160548b8b8080601f01602080910402602001604051908101604052809392919081815260200183838082843760009201919091525092939250506105a99050565b905060006103946058610354818d610de7565b8d8d8080601f0160208091040260200160405190810160405280939291908181526020018383808284376000920191909152509294939250506106549050565b60405163507c8bd160e01b81526001600160a01b038a16600482015290915060009073__$b432de17004928b1a240ca30512687a71d$__9063507c8bd190602401602060405180830381865af41580156103f2573d6000803e3d6000fd5b505050506040513d601f19601f820116820180604052508101906104169190610dfe565b90506001600160a01b03811661046e5760405162461bcd60e51b815260206004820152601a60248201527f6c314d657373656e676572206973205a65726f416464726573730000000000006044820152606401610148565b61047d8f8a88888c8c8a6107ab565b604051633dbb202b60e01b81526001600160a01b03821690633dbb202b906104ad908b9086908890600401610e77565b600060405180830381600087803b1580156104c757600080fd5b505af11580156104db573d6000803e3d6000fd5b505050506001995050505050505050505095945050505050565b600081610503816014610eb1565b10156105465760405162461bcd60e51b8152602060048201526012602482015271746f416464726573735f6f766572666c6f7760701b6044820152606401610148565b610551826014610eb1565b835110156105995760405162461bcd60e51b8152602060048201526015602482015274746f416464726573735f6f75744f66426f756e647360581b6044820152606401610148565b500160200151600160601b900490565b6000816105b7816004610eb1565b10156105f95760405162461bcd60e51b8152602060048201526011602482015270746f55696e7433325f6f766572666c6f7760781b6044820152606401610148565b610604826004610eb1565b8351101561064b5760405162461bcd60e51b8152602060048201526014602482015273746f55696e7433325f6f75744f66426f756e647360601b6044820152606401610148565b50016004015190565b60608161066281601f610eb1565b10156106a15760405162461bcd60e51b815260206004820152600e60248201526d736c6963655f6f766572666c6f7760901b6044820152606401610148565b826106ac8382610eb1565b10156106eb5760405162461bcd60e51b815260206004820152600e60248201526d736c6963655f6f766572666c6f7760901b6044820152606401610148565b6106f58284610eb1565b845110156107395760405162461bcd60e51b8152602060048201526011602482015270736c6963655f6f75744f66426f756e647360781b6044820152606401610148565b60608215801561075857604051915060008252602082016040526107a2565b6040519150601f8416801560200281840101858101878315602002848b0101015b81831015610791578051835260209283019201610779565b5050858452601f01601f1916604052505b50949350505050565b604051639da3176160e01b81526001600160a01b038716600482015260009073__$b432de17004928b1a240ca30512687a71d$__90639da3176190602401602060405180830381865af4158015610806573d6000803e3d6000fd5b505050506040513d601f19601f8201168201806040525081019061082a9190610dfe565b90506001600160a01b0381166108825760405162461bcd60e51b815260206004820152601760248201527f6c31427269646765206973205a65726f416464726573730000000000000000006044820152606401610148565b6040516370a0823160e01b81526001600160a01b0389811660048301528491908816906370a0823190602401602060405180830381865afa1580156108cb573d6000803e3d6000fd5b505050506040513d601f19601f820116820180604052508101906108ef9190610ec9565b101561093d5760405162461bcd60e51b815260206004820152601f60248201527f6c31546f6b656e2062616c616e636520697320696e73756666696369656e74006044820152606401610148565b604051636eb1769f60e11b81526001600160a01b03898116600483015230602483015284919088169063dd62ed3e90604401602060405180830381865afa15801561098c573d6000803e3d6000fd5b505050506040513d601f19601f820116820180604052508101906109b09190610ec9565b1015610a085760405162461bcd60e51b815260206004820152602160248201527f6c31546f6b656e20616c6c6f77616e636520697320696e73756666696369656e6044820152601d60fa1b6064820152608401610148565b604051636eb1769f60e11b81523060048201526001600160a01b0382811660248301526000919088169063dd62ed3e90604401602060405180830381865afa158015610a58573d6000803e3d6000fd5b505050506040513d601f19601f82011682018060405250810190610a7c9190610ec9565b905083811015610afc5760405163095ea7b360e01b81526001600160a01b038381166004830152600019602483015288169063095ea7b3906044016020604051808303816000875af1158015610ad6573d6000803e3d6000fd5b505050506040513d601f19601f82011682018060405250810190610afa9190610ee2565b505b610b116001600160a01b0388168a3087610bce565b816001600160a01b031663838b252088888888888d8d8d8d604051602001610b6194939291906001600160a01b039485168152928416602084015292166040820152606081019190915260800190565b6040516020818303038152906040526040518763ffffffff1660e01b8152600401610b9196959493929190610f04565b600060405180830381600087803b158015610bab57600080fd5b505af1158015610bbf573d6000803e3d6000fd5b50505050505050505050505050565b604080516001600160a01b0385811660248301528481166044830152606480830185905283518084039091018152608490920183526020820180516001600160e01b03166323b872dd60e01b1790529151600092839290881691610c329190610f57565b6000604051808303816000865af19150503d8060008114610c6f576040519150601f19603f3d011682016040523d82523d6000602084013e610c74565b606091505b5091509150818015610c9e575080511580610c9e575080806020019051810190610c9e9190610ee2565b610ce15760405162461bcd60e51b81526020600482015260146024820152731514905394d1915497d19493d357d1905253115160621b6044820152606401610148565b505050505050565b600060208284031215610cfb57600080fd5b81356001600160e01b031981168114610d1357600080fd5b9392505050565b6001600160a01b0381168114610d2f57600080fd5b50565b600080600080600060808688031215610d4a57600080fd5b8535610d5581610d1a565b94506020860135610d6581610d1a565b935060408601359250606086013567ffffffffffffffff80821115610d8957600080fd5b818801915088601f830112610d9d57600080fd5b813581811115610dac57600080fd5b896020828501011115610dbe57600080fd5b9699959850939650602001949392505050565b634e487b7160e01b600052601160045260246000fd5b600082821015610df957610df9610dd1565b500390565b600060208284031215610e1057600080fd5b8151610d1381610d1a565b60005b83811015610e36578181015183820152602001610e1e565b83811115610e45576000848401525b50505050565b60008151808452610e63816020860160208601610e1b565b601f01601f19169290920160200192915050565b6001600160a01b0384168152606060208201819052600090610e9b90830185610e4b565b905063ffffffff83166040830152949350505050565b60008219821115610ec457610ec4610dd1565b500190565b600060208284031215610edb57600080fd5b5051919050565b600060208284031215610ef457600080fd5b81518015158114610d1357600080fd5b6001600160a01b0387811682528681166020830152851660408201526060810184905263ffffffff8316608082015260c060a08201819052600090610f4b90830184610e4b565b98975050505050505050565b60008251610f69818460208701610e1b565b919091019291505056fea26469706673582212203e3a5f4653b2d90b09132078dfd996acce5b2bfa2fe2bbd41147e8d5f0f2f89a64736f6c634300080f0033",
  "linkReferences": {
    "contracts/libraries/LibMessenger.sol": {
      "LibMessenger": [
        {
          "length": 20,
          "start": 1242
        },
        {
          "length": 20,
          "start": 2286
        }
      ]
    }
  },
  "deployedLinkReferences": {
    "contracts/libraries/LibMessenger.sol": {
      "LibMessenger": [
        {
          "length": 20,
          "start": 952
        },
        {
          "length": 20,
          "start": 1996
        }
      ]
    }
  }
}