{
  "_format": "hh-sol-artifact-1",
  "contractName": "L1toL2DepositAndMessage",
  "sourceName": "contracts/L1/L1toL2DepositAndMessage.sol",
  "abi": [
    {
      "inputs": [
        {
          "internalType": "address",
          "name": "tonAddress",
          "type": "address"
        }
      ],
      "stateMutability": "nonpayable",
      "type": "constructor"
    },
    {
      "inputs": [
        {
          "internalType": "address",
          "name": "sender",
          "type": "address"
        },
        {
          "internalType": "address",
          "name": "spender",
          "type": "address"
        },
        {
          "internalType": "uint256",
          "name": "amount",
          "type": "uint256"
        },
        {
          "internalType": "bytes",
          "name": "data",
          "type": "bytes"
        }
      ],
      "name": "onApprove",
      "outputs": [
        {
          "internalType": "bool",
          "name": "",
          "type": "bool"
        }
      ],
      "stateMutability": "nonpayable",
      "type": "function"
    },
    {
      "inputs": [
        {
          "internalType": "bytes4",
          "name": "interfaceId",
          "type": "bytes4"
        }
      ],
      "name": "supportsInterface",
      "outputs": [
        {
          "internalType": "bool",
          "name": "",
          "type": "bool"
        }
      ],
      "stateMutability": "view",
      "type": "function"
    },
    {
      "inputs": [],
      "name": "ton",
      "outputs": [
        {
          "internalType": "address",
          "name": "",
          "type": "address"
        }
      ],
      "stateMutability": "view",
      "type": "function"
    }
  ],
  "bytecode": "0x608060405234801561001057600080fd5b5060405161123838038061123883398101604081905261002f916100e3565b600180546001600160a01b0319166001600160a01b03831617905561005a632139e50b60e11b610060565b50610113565b6001600160e01b031980821690036100be5760405162461bcd60e51b815260206004820152601c60248201527f4552433136353a20696e76616c696420696e7465726661636520696400000000604482015260640160405180910390fd5b6001600160e01b0319166000908152602081905260409020805460ff19166001179055565b6000602082840312156100f557600080fd5b81516001600160a01b038116811461010c57600080fd5b9392505050565b611116806101226000396000f3fe608060405234801561001057600080fd5b50600436106100415760003560e01c806301ffc9a7146100465780634273ca161461006e578063cc48b94714610081575b600080fd5b610059610054366004610e0a565b6100ac565b60405190151581526020015b60405180910390f35b61005961007c366004610e53565b6100ec565b600154610094906001600160a01b031681565b6040516001600160a01b039091168152602001610065565b60006301ffc9a760e01b6001600160e01b0319831614806100e657506001600160e01b0319821660009081526020819052604090205460ff165b92915050565b60006101196040518060400160405280600981526020016873656e64657220257360b81b81525087610567565b6101456040518060400160405280600a8152602001697370656e64657220257360b01b81525086610567565b61017060405180604001604052806009815260200168616d6f756e7420257360b81b815250856105b0565b6001546001600160a01b031633146101c35760405162461bcd60e51b815260206004820152601160248201527031b0b63632b91034b9903737ba102a27a760791b60448201526064015b60405180910390fd5b605882116102005760405162461bcd60e51b815260206004820152600a60248201526977726f6e67206461746160b01b60448201526064016101ba565b6000610246600085858080601f01602080910402602001604051908101604052809392919081815260200183838082843760009201919091525092939250506105f59050565b9050600061028e603c86868080601f01602080910402602001604051908101604052809392919081815260200183838082843760009201919091525092939250506105f59050565b9050600086905060006102db601488888080601f01602080910402602001604051908101604052809392919081815260200183838082843760009201919091525092939250506105f59050565b90506000610323602889898080601f01602080910402602001604051908101604052809392919081815260200183838082843760009201919091525092939250506105f59050565b9050600061036b60508a8a8080601f01602080910402602001604051908101604052809392919081815260200183838082843760009201919091525092939250506106a99050565b905060006103b360548b8b8080601f01602080910402602001604051908101604052809392919081815260200183838082843760009201919091525092939250506106a99050565b9050600061040660586103c6818d610f08565b8d8d8080601f0160208091040260200160405190810160405280939291908181526020018383808284376000920191909152509294939250506107549050565b60405163507c8bd160e01b81526001600160a01b038a16600482015290915060009073__$b432de17004928b1a240ca30512687a71d$__9063507c8bd190602401602060405180830381865af4158015610464573d6000803e3d6000fd5b505050506040513d601f19601f820116820180604052508101906104889190610f1f565b90506001600160a01b0381166104e05760405162461bcd60e51b815260206004820152601a60248201527f6c314d657373656e676572206973205a65726f4164647265737300000000000060448201526064016101ba565b6104ef8f8a88888c8c8a6108ab565b604051633dbb202b60e01b81526001600160a01b03821690633dbb202b9061051f908b9086908890600401610f98565b600060405180830381600087803b15801561053957600080fd5b505af115801561054d573d6000803e3d6000fd5b505050506001995050505050505050505095945050505050565b6105ac828260405160240161057d929190610fd2565b60408051601f198184030181529190526020810180516001600160e01b031663319af33360e01b179052610cce565b5050565b6105ac82826040516024016105c6929190610ffc565b60408051601f198184030181529190526020810180516001600160e01b0316632d839cb360e21b179052610cce565b60008161060381601461101e565b10156106465760405162461bcd60e51b8152602060048201526012602482015271746f416464726573735f6f766572666c6f7760701b60448201526064016101ba565b61065182601461101e565b835110156106995760405162461bcd60e51b8152602060048201526015602482015274746f416464726573735f6f75744f66426f756e647360581b60448201526064016101ba565b500160200151600160601b900490565b6000816106b781600461101e565b10156106f95760405162461bcd60e51b8152602060048201526011602482015270746f55696e7433325f6f766572666c6f7760781b60448201526064016101ba565b61070482600461101e565b8351101561074b5760405162461bcd60e51b8152602060048201526014602482015273746f55696e7433325f6f75744f66426f756e647360601b60448201526064016101ba565b50016004015190565b60608161076281601f61101e565b10156107a15760405162461bcd60e51b815260206004820152600e60248201526d736c6963655f6f766572666c6f7760901b60448201526064016101ba565b826107ac838261101e565b10156107eb5760405162461bcd60e51b815260206004820152600e60248201526d736c6963655f6f766572666c6f7760901b60448201526064016101ba565b6107f5828461101e565b845110156108395760405162461bcd60e51b8152602060048201526011602482015270736c6963655f6f75744f66426f756e647360781b60448201526064016101ba565b60608215801561085857604051915060008252602082016040526108a2565b6040519150601f8416801560200281840101858101878315602002848b0101015b81831015610891578051835260209283019201610879565b5050858452601f01601f1916604052505b50949350505050565b604051639da3176160e01b81526001600160a01b038716600482015260009073__$b432de17004928b1a240ca30512687a71d$__90639da3176190602401602060405180830381865af4158015610906573d6000803e3d6000fd5b505050506040513d601f19601f8201168201806040525081019061092a9190610f1f565b90506001600160a01b0381166109825760405162461bcd60e51b815260206004820152601760248201527f6c31427269646765206973205a65726f4164647265737300000000000000000060448201526064016101ba565b6040516370a0823160e01b81526001600160a01b0389811660048301528491908816906370a0823190602401602060405180830381865afa1580156109cb573d6000803e3d6000fd5b505050506040513d601f19601f820116820180604052508101906109ef9190611036565b1015610a3d5760405162461bcd60e51b815260206004820152601f60248201527f6c31546f6b656e2062616c616e636520697320696e73756666696369656e740060448201526064016101ba565b604051636eb1769f60e11b81526001600160a01b03898116600483015230602483015284919088169063dd62ed3e90604401602060405180830381865afa158015610a8c573d6000803e3d6000fd5b505050506040513d601f19601f82011682018060405250810190610ab09190611036565b1015610b085760405162461bcd60e51b815260206004820152602160248201527f6c31546f6b656e20616c6c6f77616e636520697320696e73756666696369656e6044820152601d60fa1b60648201526084016101ba565b604051636eb1769f60e11b81523060048201526001600160a01b0382811660248301526000919088169063dd62ed3e90604401602060405180830381865afa158015610b58573d6000803e3d6000fd5b505050506040513d601f19601f82011682018060405250810190610b7c9190611036565b905083811015610bfc5760405163095ea7b360e01b81526001600160a01b038381166004830152600019602483015288169063095ea7b3906044016020604051808303816000875af1158015610bd6573d6000803e3d6000fd5b505050506040513d601f19601f82011682018060405250810190610bfa919061104f565b505b610c116001600160a01b0388168a3087610cef565b816001600160a01b031663838b252088888888888d8d8d8d604051602001610c6194939291906001600160a01b039485168152928416602084015292166040820152606081019190915260800190565b6040516020818303038152906040526040518763ffffffff1660e01b8152600401610c9196959493929190611071565b600060405180830381600087803b158015610cab57600080fd5b505af1158015610cbf573d6000803e3d6000fd5b50505050505050505050505050565b80516a636f6e736f6c652e6c6f67602083016000808483855afa5050505050565b604080516001600160a01b0385811660248301528481166044830152606480830185905283518084039091018152608490920183526020820180516001600160e01b03166323b872dd60e01b1790529151600092839290881691610d5391906110c4565b6000604051808303816000865af19150503d8060008114610d90576040519150601f19603f3d011682016040523d82523d6000602084013e610d95565b606091505b5091509150818015610dbf575080511580610dbf575080806020019051810190610dbf919061104f565b610e025760405162461bcd60e51b81526020600482015260146024820152731514905394d1915497d19493d357d1905253115160621b60448201526064016101ba565b505050505050565b600060208284031215610e1c57600080fd5b81356001600160e01b031981168114610e3457600080fd5b9392505050565b6001600160a01b0381168114610e5057600080fd5b50565b600080600080600060808688031215610e6b57600080fd5b8535610e7681610e3b565b94506020860135610e8681610e3b565b935060408601359250606086013567ffffffffffffffff80821115610eaa57600080fd5b818801915088601f830112610ebe57600080fd5b813581811115610ecd57600080fd5b896020828501011115610edf57600080fd5b9699959850939650602001949392505050565b634e487b7160e01b600052601160045260246000fd5b600082821015610f1a57610f1a610ef2565b500390565b600060208284031215610f3157600080fd5b8151610e3481610e3b565b60005b83811015610f57578181015183820152602001610f3f565b83811115610f66576000848401525b50505050565b60008151808452610f84816020860160208601610f3c565b601f01601f19169290920160200192915050565b6001600160a01b0384168152606060208201819052600090610fbc90830185610f6c565b905063ffffffff83166040830152949350505050565b604081526000610fe56040830185610f6c565b905060018060a01b03831660208301529392505050565b60408152600061100f6040830185610f6c565b90508260208301529392505050565b6000821982111561103157611031610ef2565b500190565b60006020828403121561104857600080fd5b5051919050565b60006020828403121561106157600080fd5b81518015158114610e3457600080fd5b6001600160a01b0387811682528681166020830152851660408201526060810184905263ffffffff8316608082015260c060a082018190526000906110b890830184610f6c565b98975050505050505050565b600082516110d6818460208701610f3c565b919091019291505056fea264697066735822122002e49f598ffd808dcb11e96691c957a4cd59a9dff58f443a1c0a2822ffb6e8a664736f6c634300080f0033",
  "linkReferences": {
    "contracts/libraries/LibMessenger.sol": {
      "LibMessenger": [
        {
          "length": 20,
          "start": 1356
        },
        {
          "length": 20,
          "start": 2542
        }
      ]
    }
  },
  "deployedLinkReferences": {
    "contracts/libraries/LibMessenger.sol": {
      "LibMessenger": [
        {
          "length": 20,
          "start": 1066
        },
        {
          "length": 20,
          "start": 2252
        }
      ]
    }
  }
}