{
  "_format": "hh-sol-artifact-1",
  "contractName": "SwapRouter02",
  "sourceName": "contracts/SwapRouter02.sol",
  "abi": [
    {
      "inputs": [
        {
          "internalType": "address",
          "name": "_factoryV2",
          "type": "address"
        },
        {
          "internalType": "address",
          "name": "factoryV3",
          "type": "address"
        },
        {
          "internalType": "address",
          "name": "_positionManager",
          "type": "address"
        },
        {
          "internalType": "address",
          "name": "_WETH9",
          "type": "address"
        }
      ],
      "stateMutability": "nonpayable",
      "type": "constructor"
    },
    {
      "inputs": [],
      "name": "WETH9",
      "outputs": [
        {
          "internalType": "address",
          "name": "",
          "type": "address"
        }
      ],
      "stateMutability": "view",
      "type": "function"
    },
    {
      "inputs": [
        {
          "internalType": "address",
          "name": "token",
          "type": "address"
        }
      ],
      "name": "approveMax",
      "outputs": [],
      "stateMutability": "payable",
      "type": "function"
    },
    {
      "inputs": [
        {
          "internalType": "address",
          "name": "token",
          "type": "address"
        }
      ],
      "name": "approveMaxMinusOne",
      "outputs": [],
      "stateMutability": "payable",
      "type": "function"
    },
    {
      "inputs": [
        {
          "internalType": "address",
          "name": "token",
          "type": "address"
        }
      ],
      "name": "approveZeroThenMax",
      "outputs": [],
      "stateMutability": "payable",
      "type": "function"
    },
    {
      "inputs": [
        {
          "internalType": "address",
          "name": "token",
          "type": "address"
        }
      ],
      "name": "approveZeroThenMaxMinusOne",
      "outputs": [],
      "stateMutability": "payable",
      "type": "function"
    },
    {
      "inputs": [
        {
          "internalType": "bytes",
          "name": "data",
          "type": "bytes"
        }
      ],
      "name": "callPositionManager",
      "outputs": [
        {
          "internalType": "bytes",
          "name": "result",
          "type": "bytes"
        }
      ],
      "stateMutability": "payable",
      "type": "function"
    },
    {
      "inputs": [
        {
          "internalType": "bytes[]",
          "name": "paths",
          "type": "bytes[]"
        },
        {
          "internalType": "uint128[]",
          "name": "amounts",
          "type": "uint128[]"
        },
        {
          "internalType": "uint24",
          "name": "maximumTickDivergence",
          "type": "uint24"
        },
        {
          "internalType": "uint32",
          "name": "secondsAgo",
          "type": "uint32"
        }
      ],
      "name": "checkOracleSlippage",
      "outputs": [],
      "stateMutability": "view",
      "type": "function"
    },
    {
      "inputs": [
        {
          "internalType": "bytes",
          "name": "path",
          "type": "bytes"
        },
        {
          "internalType": "uint24",
          "name": "maximumTickDivergence",
          "type": "uint24"
        },
        {
          "internalType": "uint32",
          "name": "secondsAgo",
          "type": "uint32"
        }
      ],
      "name": "checkOracleSlippage",
      "outputs": [],
      "stateMutability": "view",
      "type": "function"
    },
    {
      "inputs": [
        {
          "internalType": "address",
          "name": "factory",
          "type": "address"
        },
        {
          "internalType": "address",
          "name": "tokenA",
          "type": "address"
        },
        {
          "internalType": "address",
          "name": "tokenB",
          "type": "address"
        },
        {
          "internalType": "uint24",
          "name": "fee",
          "type": "uint24"
        }
      ],
      "name": "computeAddress",
      "outputs": [
        {
          "internalType": "address",
          "name": "pool",
          "type": "address"
        }
      ],
      "stateMutability": "pure",
      "type": "function"
    },
    {
      "inputs": [
        {
          "components": [
            {
              "internalType": "bytes",
              "name": "path",
              "type": "bytes"
            },
            {
              "internalType": "address",
              "name": "recipient",
              "type": "address"
            },
            {
              "internalType": "uint256",
              "name": "amountIn",
              "type": "uint256"
            },
            {
              "internalType": "uint256",
              "name": "amountOutMinimum",
              "type": "uint256"
            }
          ],
          "internalType": "struct IV3SwapRouter.ExactInputParams",
          "name": "params",
          "type": "tuple"
        }
      ],
      "name": "exactInput",
      "outputs": [
        {
          "internalType": "uint256",
          "name": "amountOut",
          "type": "uint256"
        }
      ],
      "stateMutability": "payable",
      "type": "function"
    },
    {
      "inputs": [
        {
          "components": [
            {
              "internalType": "address",
              "name": "tokenIn",
              "type": "address"
            },
            {
              "internalType": "address",
              "name": "tokenOut",
              "type": "address"
            },
            {
              "internalType": "uint24",
              "name": "fee",
              "type": "uint24"
            },
            {
              "internalType": "address",
              "name": "recipient",
              "type": "address"
            },
            {
              "internalType": "uint256",
              "name": "amountIn",
              "type": "uint256"
            },
            {
              "internalType": "uint256",
              "name": "amountOutMinimum",
              "type": "uint256"
            },
            {
              "internalType": "uint160",
              "name": "sqrtPriceLimitX96",
              "type": "uint160"
            }
          ],
          "internalType": "struct IV3SwapRouter.ExactInputSingleParams",
          "name": "params",
          "type": "tuple"
        }
      ],
      "name": "exactInputSingle",
      "outputs": [
        {
          "internalType": "uint256",
          "name": "amountOut",
          "type": "uint256"
        }
      ],
      "stateMutability": "payable",
      "type": "function"
    },
    {
      "inputs": [
        {
          "components": [
            {
              "internalType": "bytes",
              "name": "path",
              "type": "bytes"
            },
            {
              "internalType": "address",
              "name": "recipient",
              "type": "address"
            },
            {
              "internalType": "uint256",
              "name": "amountOut",
              "type": "uint256"
            },
            {
              "internalType": "uint256",
              "name": "amountInMaximum",
              "type": "uint256"
            }
          ],
          "internalType": "struct IV3SwapRouter.ExactOutputParams",
          "name": "params",
          "type": "tuple"
        }
      ],
      "name": "exactOutput",
      "outputs": [
        {
          "internalType": "uint256",
          "name": "amountIn",
          "type": "uint256"
        }
      ],
      "stateMutability": "payable",
      "type": "function"
    },
    {
      "inputs": [
        {
          "components": [
            {
              "internalType": "address",
              "name": "tokenIn",
              "type": "address"
            },
            {
              "internalType": "address",
              "name": "tokenOut",
              "type": "address"
            },
            {
              "internalType": "uint24",
              "name": "fee",
              "type": "uint24"
            },
            {
              "internalType": "address",
              "name": "recipient",
              "type": "address"
            },
            {
              "internalType": "uint256",
              "name": "amountOut",
              "type": "uint256"
            },
            {
              "internalType": "uint256",
              "name": "amountInMaximum",
              "type": "uint256"
            },
            {
              "internalType": "uint160",
              "name": "sqrtPriceLimitX96",
              "type": "uint160"
            }
          ],
          "internalType": "struct IV3SwapRouter.ExactOutputSingleParams",
          "name": "params",
          "type": "tuple"
        }
      ],
      "name": "exactOutputSingle",
      "outputs": [
        {
          "internalType": "uint256",
          "name": "amountIn",
          "type": "uint256"
        }
      ],
      "stateMutability": "payable",
      "type": "function"
    },
    {
      "inputs": [],
      "name": "factory",
      "outputs": [
        {
          "internalType": "address",
          "name": "",
          "type": "address"
        }
      ],
      "stateMutability": "view",
      "type": "function"
    },
    {
      "inputs": [],
      "name": "factoryV2",
      "outputs": [
        {
          "internalType": "address",
          "name": "",
          "type": "address"
        }
      ],
      "stateMutability": "view",
      "type": "function"
    },
    {
      "inputs": [
        {
          "internalType": "address",
          "name": "token",
          "type": "address"
        },
        {
          "internalType": "uint256",
          "name": "amount",
          "type": "uint256"
        }
      ],
      "name": "getApprovalType",
      "outputs": [
        {
          "internalType": "enum IApproveAndCall.ApprovalType",
          "name": "",
          "type": "uint8"
        }
      ],
      "stateMutability": "nonpayable",
      "type": "function"
    },
    {
      "inputs": [
        {
          "components": [
            {
              "internalType": "address",
              "name": "token0",
              "type": "address"
            },
            {
              "internalType": "address",
              "name": "token1",
              "type": "address"
            },
            {
              "internalType": "uint256",
              "name": "tokenId",
              "type": "uint256"
            },
            {
              "internalType": "uint256",
              "name": "amount0Min",
              "type": "uint256"
            },
            {
              "internalType": "uint256",
              "name": "amount1Min",
              "type": "uint256"
            }
          ],
          "internalType": "struct IApproveAndCall.IncreaseLiquidityParams",
          "name": "params",
          "type": "tuple"
        }
      ],
      "name": "increaseLiquidity",
      "outputs": [
        {
          "internalType": "bytes",
          "name": "result",
          "type": "bytes"
        }
      ],
      "stateMutability": "payable",
      "type": "function"
    },
    {
      "inputs": [
        {
          "components": [
            {
              "internalType": "address",
              "name": "token0",
              "type": "address"
            },
            {
              "internalType": "address",
              "name": "token1",
              "type": "address"
            },
            {
              "internalType": "uint24",
              "name": "fee",
              "type": "uint24"
            },
            {
              "internalType": "int24",
              "name": "tickLower",
              "type": "int24"
            },
            {
              "internalType": "int24",
              "name": "tickUpper",
              "type": "int24"
            },
            {
              "internalType": "uint256",
              "name": "amount0Min",
              "type": "uint256"
            },
            {
              "internalType": "uint256",
              "name": "amount1Min",
              "type": "uint256"
            },
            {
              "internalType": "address",
              "name": "recipient",
              "type": "address"
            }
          ],
          "internalType": "struct IApproveAndCall.MintParams",
          "name": "params",
          "type": "tuple"
        }
      ],
      "name": "mint",
      "outputs": [
        {
          "internalType": "bytes",
          "name": "result",
          "type": "bytes"
        }
      ],
      "stateMutability": "payable",
      "type": "function"
    },
    {
      "inputs": [
        {
          "internalType": "bytes32",
          "name": "previousBlockhash",
          "type": "bytes32"
        },
        {
          "internalType": "bytes[]",
          "name": "data",
          "type": "bytes[]"
        }
      ],
      "name": "multicall",
      "outputs": [
        {
          "internalType": "bytes[]",
          "name": "",
          "type": "bytes[]"
        }
      ],
      "stateMutability": "payable",
      "type": "function"
    },
    {
      "inputs": [
        {
          "internalType": "uint256",
          "name": "deadline",
          "type": "uint256"
        },
        {
          "internalType": "bytes[]",
          "name": "data",
          "type": "bytes[]"
        }
      ],
      "name": "multicall",
      "outputs": [
        {
          "internalType": "bytes[]",
          "name": "",
          "type": "bytes[]"
        }
      ],
      "stateMutability": "payable",
      "type": "function"
    },
    {
      "inputs": [
        {
          "internalType": "bytes[]",
          "name": "data",
          "type": "bytes[]"
        }
      ],
      "name": "multicall",
      "outputs": [
        {
          "internalType": "bytes[]",
          "name": "results",
          "type": "bytes[]"
        }
      ],
      "stateMutability": "payable",
      "type": "function"
    },
    {
      "inputs": [],
      "name": "positionManager",
      "outputs": [
        {
          "internalType": "address",
          "name": "",
          "type": "address"
        }
      ],
      "stateMutability": "view",
      "type": "function"
    },
    {
      "inputs": [
        {
          "internalType": "address",
          "name": "token",
          "type": "address"
        },
        {
          "internalType": "uint256",
          "name": "value",
          "type": "uint256"
        }
      ],
      "name": "pull",
      "outputs": [],
      "stateMutability": "payable",
      "type": "function"
    },
    {
      "inputs": [],
      "name": "refundETH",
      "outputs": [],
      "stateMutability": "payable",
      "type": "function"
    },
    {
      "inputs": [
        {
          "internalType": "address",
          "name": "token",
          "type": "address"
        },
        {
          "internalType": "uint256",
          "name": "value",
          "type": "uint256"
        },
        {
          "internalType": "uint256",
          "name": "deadline",
          "type": "uint256"
        },
        {
          "internalType": "uint8",
          "name": "v",
          "type": "uint8"
        },
        {
          "internalType": "bytes32",
          "name": "r",
          "type": "bytes32"
        },
        {
          "internalType": "bytes32",
          "name": "s",
          "type": "bytes32"
        }
      ],
      "name": "selfPermit",
      "outputs": [],
      "stateMutability": "payable",
      "type": "function"
    },
    {
      "inputs": [
        {
          "internalType": "address",
          "name": "token",
          "type": "address"
        },
        {
          "internalType": "uint256",
          "name": "nonce",
          "type": "uint256"
        },
        {
          "internalType": "uint256",
          "name": "expiry",
          "type": "uint256"
        },
        {
          "internalType": "uint8",
          "name": "v",
          "type": "uint8"
        },
        {
          "internalType": "bytes32",
          "name": "r",
          "type": "bytes32"
        },
        {
          "internalType": "bytes32",
          "name": "s",
          "type": "bytes32"
        }
      ],
      "name": "selfPermitAllowed",
      "outputs": [],
      "stateMutability": "payable",
      "type": "function"
    },
    {
      "inputs": [
        {
          "internalType": "address",
          "name": "token",
          "type": "address"
        },
        {
          "internalType": "uint256",
          "name": "nonce",
          "type": "uint256"
        },
        {
          "internalType": "uint256",
          "name": "expiry",
          "type": "uint256"
        },
        {
          "internalType": "uint8",
          "name": "v",
          "type": "uint8"
        },
        {
          "internalType": "bytes32",
          "name": "r",
          "type": "bytes32"
        },
        {
          "internalType": "bytes32",
          "name": "s",
          "type": "bytes32"
        }
      ],
      "name": "selfPermitAllowedIfNecessary",
      "outputs": [],
      "stateMutability": "payable",
      "type": "function"
    },
    {
      "inputs": [
        {
          "internalType": "address",
          "name": "token",
          "type": "address"
        },
        {
          "internalType": "uint256",
          "name": "value",
          "type": "uint256"
        },
        {
          "internalType": "uint256",
          "name": "deadline",
          "type": "uint256"
        },
        {
          "internalType": "uint8",
          "name": "v",
          "type": "uint8"
        },
        {
          "internalType": "bytes32",
          "name": "r",
          "type": "bytes32"
        },
        {
          "internalType": "bytes32",
          "name": "s",
          "type": "bytes32"
        }
      ],
      "name": "selfPermitIfNecessary",
      "outputs": [],
      "stateMutability": "payable",
      "type": "function"
    },
    {
      "inputs": [
        {
          "internalType": "uint256",
          "name": "amountIn",
          "type": "uint256"
        },
        {
          "internalType": "uint256",
          "name": "amountOutMin",
          "type": "uint256"
        },
        {
          "internalType": "address[]",
          "name": "path",
          "type": "address[]"
        },
        {
          "internalType": "address",
          "name": "to",
          "type": "address"
        }
      ],
      "name": "swapExactTokensForTokens",
      "outputs": [
        {
          "internalType": "uint256",
          "name": "amountOut",
          "type": "uint256"
        }
      ],
      "stateMutability": "payable",
      "type": "function"
    },
    {
      "inputs": [
        {
          "internalType": "uint256",
          "name": "amountOut",
          "type": "uint256"
        },
        {
          "internalType": "uint256",
          "name": "amountInMax",
          "type": "uint256"
        },
        {
          "internalType": "address[]",
          "name": "path",
          "type": "address[]"
        },
        {
          "internalType": "address",
          "name": "to",
          "type": "address"
        }
      ],
      "name": "swapTokensForExactTokens",
      "outputs": [
        {
          "internalType": "uint256",
          "name": "amountIn",
          "type": "uint256"
        }
      ],
      "stateMutability": "payable",
      "type": "function"
    },
    {
      "inputs": [
        {
          "internalType": "address",
          "name": "token",
          "type": "address"
        },
        {
          "internalType": "uint256",
          "name": "amountMinimum",
          "type": "uint256"
        },
        {
          "internalType": "address",
          "name": "recipient",
          "type": "address"
        }
      ],
      "name": "sweepToken",
      "outputs": [],
      "stateMutability": "payable",
      "type": "function"
    },
    {
      "inputs": [
        {
          "internalType": "address",
          "name": "token",
          "type": "address"
        },
        {
          "internalType": "uint256",
          "name": "amountMinimum",
          "type": "uint256"
        }
      ],
      "name": "sweepToken",
      "outputs": [],
      "stateMutability": "payable",
      "type": "function"
    },
    {
      "inputs": [
        {
          "internalType": "address",
          "name": "token",
          "type": "address"
        },
        {
          "internalType": "uint256",
          "name": "amountMinimum",
          "type": "uint256"
        },
        {
          "internalType": "uint256",
          "name": "feeBips",
          "type": "uint256"
        },
        {
          "internalType": "address",
          "name": "feeRecipient",
          "type": "address"
        }
      ],
      "name": "sweepTokenWithFee",
      "outputs": [],
      "stateMutability": "payable",
      "type": "function"
    },
    {
      "inputs": [
        {
          "internalType": "address",
          "name": "token",
          "type": "address"
        },
        {
          "internalType": "uint256",
          "name": "amountMinimum",
          "type": "uint256"
        },
        {
          "internalType": "address",
          "name": "recipient",
          "type": "address"
        },
        {
          "internalType": "uint256",
          "name": "feeBips",
          "type": "uint256"
        },
        {
          "internalType": "address",
          "name": "feeRecipient",
          "type": "address"
        }
      ],
      "name": "sweepTokenWithFee",
      "outputs": [],
      "stateMutability": "payable",
      "type": "function"
    },
    {
      "inputs": [
        {
          "internalType": "int256",
          "name": "amount0Delta",
          "type": "int256"
        },
        {
          "internalType": "int256",
          "name": "amount1Delta",
          "type": "int256"
        },
        {
          "internalType": "bytes",
          "name": "_data",
          "type": "bytes"
        }
      ],
      "name": "uniswapV3SwapCallback",
      "outputs": [],
      "stateMutability": "nonpayable",
      "type": "function"
    },
    {
      "inputs": [
        {
          "internalType": "uint256",
          "name": "amountMinimum",
          "type": "uint256"
        },
        {
          "internalType": "address",
          "name": "recipient",
          "type": "address"
        }
      ],
      "name": "unwrapWETH9",
      "outputs": [],
      "stateMutability": "payable",
      "type": "function"
    },
    {
      "inputs": [
        {
          "internalType": "uint256",
          "name": "amountMinimum",
          "type": "uint256"
        }
      ],
      "name": "unwrapWETH9",
      "outputs": [],
      "stateMutability": "payable",
      "type": "function"
    },
    {
      "inputs": [
        {
          "internalType": "uint256",
          "name": "amountMinimum",
          "type": "uint256"
        },
        {
          "internalType": "address",
          "name": "recipient",
          "type": "address"
        },
        {
          "internalType": "uint256",
          "name": "feeBips",
          "type": "uint256"
        },
        {
          "internalType": "address",
          "name": "feeRecipient",
          "type": "address"
        }
      ],
      "name": "unwrapWETH9WithFee",
      "outputs": [],
      "stateMutability": "payable",
      "type": "function"
    },
    {
      "inputs": [
        {
          "internalType": "uint256",
          "name": "amountMinimum",
          "type": "uint256"
        },
        {
          "internalType": "uint256",
          "name": "feeBips",
          "type": "uint256"
        },
        {
          "internalType": "address",
          "name": "feeRecipient",
          "type": "address"
        }
      ],
      "name": "unwrapWETH9WithFee",
      "outputs": [],
      "stateMutability": "payable",
      "type": "function"
    },
    {
      "inputs": [
        {
          "internalType": "uint256",
          "name": "value",
          "type": "uint256"
        }
      ],
      "name": "wrapETH",
      "outputs": [],
      "stateMutability": "payable",
      "type": "function"
    },
    {
      "stateMutability": "payable",
      "type": "receive"
    }
  ],
  "bytecode": "0x6101006040526000196000553480156200001857600080fd5b5060405162006340380380620063408339810160408190526200003b9162000087565b6001600160601b0319606094851b811660805291841b821660a05291831b811660c052911b1660e052620000e3565b80516001600160a01b03811681146200008257600080fd5b919050565b600080600080608085870312156200009d578384fd5b620000a8856200006a565b9350620000b8602086016200006a565b9250620000c8604086016200006a565b9150620000d8606086016200006a565b905092959194509250565b60805160601c60a05160601c60c05160601c60e05160601c6161b762000189600039806102dc5280610b7752806112e8528061141252806114b95280611700528061182a5280612de05280612e405280612ec1525080611e9d52806125305280613edf528061477e5250806116aa5280611b6b5280611eed52806132f7525080610c9d5280610d71528061101d5280611686528061301352806131d652506161b76000f3fe6080604052600436106102bf5760003560e01c80639b2c0a371161016e578063dee00f35116100cb578063f100b2051161007f578063f2d5d56b11610064578063f2d5d56b146106a9578063f3995c67146106bc578063fa461e33146106cf5761036a565b8063f100b20514610676578063f25801a7146106895761036a565b8063e0e189a0116100b0578063e0e189a014610630578063e90a182f14610643578063efdeed8e146106565761036a565b8063dee00f35146105f0578063df2ab5bb1461061d5761036a565b8063b858183f11610122578063c45a015511610107578063c45a0155146105b5578063cab372ce146105ca578063d4ef38de146105dd5761036a565b8063b858183f1461058f578063c2e3140a146105a25761036a565b8063ab3fdd5011610153578063ab3fdd5014610556578063ac9650d814610569578063b3a2af131461057c5761036a565b80639b2c0a3714610530578063a4a78f0c146105435761036a565b806349404b7c1161021c5780635ae401dc116101d057806368e0d4e1116101b557806368e0d4e1146104e6578063791b98bc146104fb5780638716c5ff146105105761036a565b80635ae401dc146104c0578063639d71a9146104d35761036a565b80634aa4a4fc116102015780634aa4a4fc146104785780635023b4df1461049a578063571ac8b0146104ad5761036a565b806349404b7c1461045257806349616997146104655761036a565b80631f0464d11161027357806342712a671161025857806342712a67146104195780634659a4941461042c578063472b43f31461043f5761036a565b80631f0464d1146103e65780633068c554146104065761036a565b806311ed56c9116102a457806311ed56c9146103ab57806312210e8a146103cb5780631c58db4f146103d35761036a565b806304e45aaf1461036f57806309b81346146103985761036a565b3661036a573373ffffffffffffffffffffffffffffffffffffffff7f0000000000000000000000000000000000000000000000000000000000000000161461036857604080517f08c379a000000000000000000000000000000000000000000000000000000000815260206004820152600960248201527f4e6f742057455448390000000000000000000000000000000000000000000000604482015290519081900360640190fd5b005b600080fd5b61038261037d366004615749565b6106ef565b60405161038f9190616003565b60405180910390f35b6103826103a63660046157e4565b610877565b6103be6103b936600461583e565b610957565b60405161038f9190615d80565b610368610b63565b6103686103e13660046159c1565b610b75565b6103f96103f43660046154ad565b610bf9565b60405161038f9190615d02565b6103686104143660046152e9565b610c83565b610382610427366004615a8b565b610c96565b61036861043a366004615332565b610e70565b61038261044d366004615a8b565b610f30565b6103686104603660046159f1565b6112e4565b6103686104733660046159c1565b6114aa565b34801561048457600080fd5b5061048d6114b7565b60405161038f9190615c42565b6103826104a836600461581c565b6114db565b6103686104bb3660046151a3565b6115c4565b6103f96104ce3660046154ad565b6115f7565b6103686104e13660046151a3565b611670565b3480156104f257600080fd5b5061048d611684565b34801561050757600080fd5b5061048d6116a8565b34801561051c57600080fd5b5061048d61052b3660046151c6565b6116cc565b61036861053e366004615a20565b6116e2565b610368610551366004615332565b6118f8565b6103686105643660046151a3565b6119cd565b6103f961057736600461538d565b611a0b565b6103be61058a3660046154f7565b611b65565b61038261059d3660046156a3565b611c23565b6103686105b0366004615332565b611de6565b3480156105c157600080fd5b5061048d611e9b565b6103686105d83660046151a3565b6119e1565b6103686105eb366004615a5e565b611ebf565b3480156105fc57600080fd5b5061061061060b36600461521f565b611ecb565b60405161038f9190615d93565b61036861062b36600461524a565b612078565b61036861063e36600461528b565b61218f565b61036861065136600461521f565b6122f5565b34801561066257600080fd5b506103686106713660046153cd565b612304565b6103be61068436600461582d565b612356565b34801561069557600080fd5b506103686106a436600461552a565b6123f6565b6103686106b736600461521f565b612447565b6103686106ca366004615332565b612453565b3480156106db57600080fd5b506103686106ea3660046155be565b6124eb565b6000806000836080015114156107ac575081516040517f70a0823100000000000000000000000000000000000000000000000000000000815260019173ffffffffffffffffffffffffffffffffffffffff16906370a0823190610756903090600401615c42565b60206040518083038186803b15801561076e57600080fd5b505afa158015610782573d6000803e3d6000fd5b505050506040513d601f19601f820116820180604052508101906107a691906159d9565b60808401525b610828836080015184606001518560c001516040518060400160405280886000015189604001518a602001516040516020016107ea93929190615bb0565b604051602081830303815290604052815260200186610809573361080b565b305b73ffffffffffffffffffffffffffffffffffffffff16905261262f565b91508260a00151821015610871576040517f08c379a000000000000000000000000000000000000000000000000000000000815260040161086890615e83565b60405180910390fd5b50919050565b60006108eb6040830180359061089090602086016151a3565b60408051808201909152600090806108a88880616047565b8080601f016020809104026020016040519081016040528093929190818152602001838380828437600092019190915250505090825250336020909101526127e0565b5050600054606082013581111561092e576040517f08c379a000000000000000000000000000000000000000000000000000000000815260040161086890615e15565b7fffffffffffffffffffffffffffffffffffffffffffffffffffffffffffffffff600055919050565b604080516101608101909152606090610b5b907f8831645600000000000000000000000000000000000000000000000000000000908061099a60208701876151a3565b73ffffffffffffffffffffffffffffffffffffffff1681526020018560200160208101906109c891906151a3565b73ffffffffffffffffffffffffffffffffffffffff1681526020016109f360608701604088016159a7565b62ffffff168152602001610a0d608087016060880161557f565b60020b8152602001610a2560a087016080880161557f565b60020b8152602090810190610a4590610a40908801886151a3565b6129c7565b8152602001610a60866020016020810190610a4091906151a3565b815260a0860135602082015260c08601356040820152606001610a8a610100870160e088016151a3565b73ffffffffffffffffffffffffffffffffffffffff1681526020017fffffffffffffffffffffffffffffffffffffffffffffffffffffffffffffffff815250604051602401610ad99190615efe565b604080517fffffffffffffffffffffffffffffffffffffffffffffffffffffffffffffffe08184030181529190526020810180517bffffffffffffffffffffffffffffffffffffffffffffffffffffffff167fffffffff0000000000000000000000000000000000000000000000000000000090931692909217909152611b65565b90505b919050565b4715610b7357610b733347612a6c565b565b7f000000000000000000000000000000000000000000000000000000000000000073ffffffffffffffffffffffffffffffffffffffff1663d0e30db0826040518263ffffffff1660e01b81526004016000604051808303818588803b158015610bdd57600080fd5b505af1158015610bf1573d6000803e3d6000fd5b505050505050565b60608380600143034014610c6e57604080517f08c379a000000000000000000000000000000000000000000000000000000000815260206004820152600960248201527f426c6f636b686173680000000000000000000000000000000000000000000000604482015290519081900360640190fd5b610c788484611a0b565b91505b509392505050565b610c90848433858561218f565b50505050565b6000610cf67f000000000000000000000000000000000000000000000000000000000000000087868680806020026020016040519081016040528093929190818152602001838360200280828437600092019190915250612bba92505050565b600081518110610d0257fe5b6020026020010151905084811115610d46576040517f08c379a000000000000000000000000000000000000000000000000000000000815260040161086890615e15565b610ddf84846000818110610d5657fe5b9050602002016020810190610d6b91906151a3565b33610dd97f000000000000000000000000000000000000000000000000000000000000000088886000818110610d9d57fe5b9050602002016020810190610db291906151a3565b89896001818110610dbf57fe5b9050602002016020810190610dd491906151a3565b612cf3565b84612dde565b73ffffffffffffffffffffffffffffffffffffffff821660011415610e0657339150610e29565b73ffffffffffffffffffffffffffffffffffffffff821660021415610e29573091505b610e67848480806020026020016040519081016040528093929190818152602001838360200280828437600092019190915250869250612fbc915050565b95945050505050565b604080517f8fcbaf0c00000000000000000000000000000000000000000000000000000000815233600482015230602482015260448101879052606481018690526001608482015260ff851660a482015260c4810184905260e48101839052905173ffffffffffffffffffffffffffffffffffffffff881691638fcbaf0c9161010480830192600092919082900301818387803b158015610f1057600080fd5b505af1158015610f24573d6000803e3d6000fd5b50505050505050505050565b60008086610fe6575060018484600081610f4657fe5b9050602002016020810190610f5b91906151a3565b73ffffffffffffffffffffffffffffffffffffffff166370a08231306040518263ffffffff1660e01b8152600401610f939190615c42565b60206040518083038186803b158015610fab57600080fd5b505afa158015610fbf573d6000803e3d6000fd5b505050506040513d601f19601f82011682018060405250810190610fe391906159d9565b96505b61107185856000818110610ff657fe5b905060200201602081019061100b91906151a3565b826110165733611018565b305b61106b7f00000000000000000000000000000000000000000000000000000000000000008989600081811061104957fe5b905060200201602081019061105e91906151a3565b8a8a6001818110610dbf57fe5b8a612dde565b73ffffffffffffffffffffffffffffffffffffffff831660011415611098573392506110bb565b73ffffffffffffffffffffffffffffffffffffffff8316600214156110bb573092505b600085857fffffffffffffffffffffffffffffffffffffffffffffffffffffffffffffffff81018181106110eb57fe5b905060200201602081019061110091906151a3565b73ffffffffffffffffffffffffffffffffffffffff166370a08231856040518263ffffffff1660e01b81526004016111389190615c42565b60206040518083038186803b15801561115057600080fd5b505afa158015611164573d6000803e3d6000fd5b505050506040513d601f19601f8201168201806040525081019061118891906159d9565b90506111c8868680806020026020016040519081016040528093929190818152602001838360200280828437600092019190915250889250612fbc915050565b61129d8187877fffffffffffffffffffffffffffffffffffffffffffffffffffffffffffffffff81018181106111fa57fe5b905060200201602081019061120f91906151a3565b73ffffffffffffffffffffffffffffffffffffffff166370a08231876040518263ffffffff1660e01b81526004016112479190615c42565b60206040518083038186803b15801561125f57600080fd5b505afa158015611273573d6000803e3d6000fd5b505050506040513d601f19601f8201168201806040525081019061129791906159d9565b906132c1565b9250868310156112d9576040517f08c379a000000000000000000000000000000000000000000000000000000000815260040161086890615e83565b505095945050505050565b60007f000000000000000000000000000000000000000000000000000000000000000073ffffffffffffffffffffffffffffffffffffffff166370a08231306040518263ffffffff1660e01b8152600401808273ffffffffffffffffffffffffffffffffffffffff16815260200191505060206040518083038186803b15801561136d57600080fd5b505afa158015611381573d6000803e3d6000fd5b505050506040513d602081101561139757600080fd5b505190508281101561140a57604080517f08c379a000000000000000000000000000000000000000000000000000000000815260206004820152601260248201527f496e73756666696369656e742057455448390000000000000000000000000000604482015290519081900360640190fd5b80156114a5577f000000000000000000000000000000000000000000000000000000000000000073ffffffffffffffffffffffffffffffffffffffff16632e1a7d4d826040518263ffffffff1660e01b815260040180828152602001915050600060405180830381600087803b15801561148357600080fd5b505af1158015611497573d6000803e3d6000fd5b505050506114a58282612a6c565b505050565b6114b481336112e4565b50565b7f000000000000000000000000000000000000000000000000000000000000000081565b6000611584608083018035906114f490606086016151a3565b61150460e0860160c087016151a3565b604051806040016040528087602001602081019061152291906151a3565b61153260608a0160408b016159a7565b61153f60208b018b6151a3565b60405160200161155193929190615bb0565b60405160208183030381529060405281526020013373ffffffffffffffffffffffffffffffffffffffff168152506127e0565b90508160a0013581111561092e576040517f08c379a000000000000000000000000000000000000000000000000000000000815260040161086890615e15565b6115ee817fffffffffffffffffffffffffffffffffffffffffffffffffffffffffffffffff6132d1565b6114b457600080fd5b6060838061160361341d565b1115610c6e57604080517f08c379a000000000000000000000000000000000000000000000000000000000815260206004820152601360248201527f5472616e73616374696f6e20746f6f206f6c6400000000000000000000000000604482015290519081900360640190fd5b61167b8160006132d1565b6115c457600080fd5b7f000000000000000000000000000000000000000000000000000000000000000081565b7f000000000000000000000000000000000000000000000000000000000000000081565b6000610e67856116dd868686613421565b61349e565b6000821180156116f3575060648211155b6116fc57600080fd5b60007f000000000000000000000000000000000000000000000000000000000000000073ffffffffffffffffffffffffffffffffffffffff166370a08231306040518263ffffffff1660e01b8152600401808273ffffffffffffffffffffffffffffffffffffffff16815260200191505060206040518083038186803b15801561178557600080fd5b505afa158015611799573d6000803e3d6000fd5b505050506040513d60208110156117af57600080fd5b505190508481101561182257604080517f08c379a000000000000000000000000000000000000000000000000000000000815260206004820152601260248201527f496e73756666696369656e742057455448390000000000000000000000000000604482015290519081900360640190fd5b80156118f1577f000000000000000000000000000000000000000000000000000000000000000073ffffffffffffffffffffffffffffffffffffffff16632e1a7d4d826040518263ffffffff1660e01b815260040180828152602001915050600060405180830381600087803b15801561189b57600080fd5b505af11580156118af573d6000803e3d6000fd5b5050505060006127106118cb85846135d490919063ffffffff16565b816118d257fe5b04905080156118e5576118e58382612a6c565b610bf185828403612a6c565b5050505050565b604080517fdd62ed3e00000000000000000000000000000000000000000000000000000000815233600482015230602482015290517fffffffffffffffffffffffffffffffffffffffffffffffffffffffffffffffff9173ffffffffffffffffffffffffffffffffffffffff89169163dd62ed3e91604480820192602092909190829003018186803b15801561198d57600080fd5b505afa1580156119a1573d6000803e3d6000fd5b505050506040513d60208110156119b757600080fd5b50511015610bf157610bf1868686868686610e70565b6119d88160006132d1565b6119e157600080fd5b6115ee817ffffffffffffffffffffffffffffffffffffffffffffffffffffffffffffffffe6132d1565b60608167ffffffffffffffff81118015611a2457600080fd5b50604051908082528060200260200182016040528015611a5857816020015b6060815260200190600190039081611a435790505b50905060005b82811015611b5e5760008030868685818110611a7657fe5b9050602002810190611a889190616047565b604051611a96929190615c16565b600060405180830381855af49150503d8060008114611ad1576040519150601f19603f3d011682016040523d82523d6000602084013e611ad6565b606091505b509150915081611b3c57604481511015611aef57600080fd5b60048101905080806020019051810190611b099190615639565b6040517f08c379a00000000000000000000000000000000000000000000000000000000081526004016108689190615d80565b80848481518110611b4957fe5b60209081029190910101525050600101611a5e565b5092915050565b606060007f000000000000000000000000000000000000000000000000000000000000000073ffffffffffffffffffffffffffffffffffffffff1683604051611bae9190615c26565b6000604051808303816000865af19150503d8060008114611beb576040519150601f19603f3d011682016040523d82523d6000602084013e611bf0565b606091505b50925090508061087157604482511015611c0957600080fd5b60048201915081806020019051810190611b099190615639565b600080600083604001511415611cf457600190506000611c4684600001516135f8565b50506040517f70a0823100000000000000000000000000000000000000000000000000000000815290915073ffffffffffffffffffffffffffffffffffffffff8216906370a0823190611c9d903090600401615c42565b60206040518083038186803b158015611cb557600080fd5b505afa158015611cc9573d6000803e3d6000fd5b505050506040513d601f19601f82011682018060405250810190611ced91906159d9565b6040850152505b600081611d015733611d03565b305b90505b6000611d158560000151613629565b9050611d6e856040015182611d2e578660200151611d30565b305b60006040518060400160405280611d4a8b60000151613631565b81526020018773ffffffffffffffffffffffffffffffffffffffff1681525061262f565b60408601528015611d8e578451309250611d8790613640565b8552611d9b565b8460400151935050611da1565b50611d06565b8360600151831015611ddf576040517f08c379a000000000000000000000000000000000000000000000000000000000815260040161086890615e83565b5050919050565b604080517fdd62ed3e0000000000000000000000000000000000000000000000000000000081523360048201523060248201529051869173ffffffffffffffffffffffffffffffffffffffff89169163dd62ed3e91604480820192602092909190829003018186803b158015611e5b57600080fd5b505afa158015611e6f573d6000803e3d6000fd5b505050506040513d6020811015611e8557600080fd5b50511015610bf157610bf1868686868686612453565b7f000000000000000000000000000000000000000000000000000000000000000081565b6114a5833384846116e2565b6000818373ffffffffffffffffffffffffffffffffffffffff1663dd62ed3e307f00000000000000000000000000000000000000000000000000000000000000006040518363ffffffff1660e01b8152600401611f29929190615c63565b60206040518083038186803b158015611f4157600080fd5b505afa158015611f55573d6000803e3d6000fd5b505050506040513d601f19601f82011682018060405250810190611f7991906159d9565b10611f8657506000612072565b611fb0837fffffffffffffffffffffffffffffffffffffffffffffffffffffffffffffffff6132d1565b15611fbd57506001612072565b611fe7837ffffffffffffffffffffffffffffffffffffffffffffffffffffffffffffffffe6132d1565b15611ff457506002612072565b611fff8360006132d1565b61200857600080fd5b612032837fffffffffffffffffffffffffffffffffffffffffffffffffffffffffffffffff6132d1565b1561203f57506003612072565b612069837ffffffffffffffffffffffffffffffffffffffffffffffffffffffffffffffffe6132d1565b1561036a575060045b92915050565b60008373ffffffffffffffffffffffffffffffffffffffff166370a08231306040518263ffffffff1660e01b8152600401808273ffffffffffffffffffffffffffffffffffffffff16815260200191505060206040518083038186803b1580156120e157600080fd5b505afa1580156120f5573d6000803e3d6000fd5b505050506040513d602081101561210b57600080fd5b505190508281101561217e57604080517f08c379a000000000000000000000000000000000000000000000000000000000815260206004820152601260248201527f496e73756666696369656e7420746f6b656e0000000000000000000000000000604482015290519081900360640190fd5b8015610c9057610c90848383613675565b6000821180156121a0575060648211155b6121a957600080fd5b60008573ffffffffffffffffffffffffffffffffffffffff166370a08231306040518263ffffffff1660e01b8152600401808273ffffffffffffffffffffffffffffffffffffffff16815260200191505060206040518083038186803b15801561221257600080fd5b505afa158015612226573d6000803e3d6000fd5b505050506040513d602081101561223c57600080fd5b50519050848110156122af57604080517f08c379a000000000000000000000000000000000000000000000000000000000815260206004820152601260248201527f496e73756666696369656e7420746f6b656e0000000000000000000000000000604482015290519081900360640190fd5b8015610bf15760006127106122c483866135d4565b816122cb57fe5b04905080156122df576122df878483613675565b6122ec8786838503613675565b50505050505050565b612300828233612078565b5050565b60008061231286868561384a565b915091508362ffffff1681830312610bf1576040517f08c379a000000000000000000000000000000000000000000000000000000000815260040161086890615e4c565b6060610b5b63219f5d1760e01b6040518060c001604052808560400135815260200161238e866000016020810190610a4091906151a3565b81526020016123a9866020016020810190610a4091906151a3565b815260200185606001358152602001856080013581526020017fffffffffffffffffffffffffffffffffffffffffffffffffffffffffffffffff815250604051602401610ad99190615eba565b6000806124038584613a5d565b915091508362ffffff16818303126118f1576040517f08c379a000000000000000000000000000000000000000000000000000000000815260040161086890615e4c565b61230082333084613ce5565b604080517fd505accf000000000000000000000000000000000000000000000000000000008152336004820152306024820152604481018790526064810186905260ff8516608482015260a4810184905260c48101839052905173ffffffffffffffffffffffffffffffffffffffff88169163d505accf9160e480830192600092919082900301818387803b158015610f1057600080fd5b60008413806124fa5750600083135b61250357600080fd5b600061251182840184615850565b9050600080600061252584600001516135f8565b9250925092506125577f0000000000000000000000000000000000000000000000000000000000000000848484613ec2565b5060008060008a13612598578473ffffffffffffffffffffffffffffffffffffffff168473ffffffffffffffffffffffffffffffffffffffff1610896125c9565b8373ffffffffffffffffffffffffffffffffffffffff168573ffffffffffffffffffffffffffffffffffffffff16108a5b9150915081156125e8576125e38587602001513384612dde565b610f24565b85516125f390613629565b1561261857855161260390613640565b865261261281336000896127e0565b50610f24565b80600081905550610f248487602001513384612dde565b600073ffffffffffffffffffffffffffffffffffffffff8416600114156126585733935061267b565b73ffffffffffffffffffffffffffffffffffffffff84166002141561267b573093505b600080600061268d85600001516135f8565b9194509250905073ffffffffffffffffffffffffffffffffffffffff808316908416106000806126be868686613ed8565b73ffffffffffffffffffffffffffffffffffffffff1663128acb088b856126e48f613f11565b73ffffffffffffffffffffffffffffffffffffffff8e1615612706578d61272c565b876127255773fffd8963efd1fc6a506488495d951d5263988d2561272c565b6401000276a45b8d60405160200161273d9190615fac565b6040516020818303038152906040526040518663ffffffff1660e01b815260040161276c959493929190615c8a565b6040805180830381600087803b15801561278557600080fd5b505af1158015612799573d6000803e3d6000fd5b505050506040513d601f19601f820116820180604052508101906127bd919061559b565b91509150826127cc57816127ce565b805b6000039b9a5050505050505050505050565b600073ffffffffffffffffffffffffffffffffffffffff8416600114156128095733935061282c565b73ffffffffffffffffffffffffffffffffffffffff84166002141561282c573093505b600080600061283e85600001516135f8565b9194509250905073ffffffffffffffffffffffffffffffffffffffff8084169083161060008061286f858786613ed8565b73ffffffffffffffffffffffffffffffffffffffff1663128acb088b856128958f613f11565b60000373ffffffffffffffffffffffffffffffffffffffff8e16156128ba578d6128e0565b876128d95773fffd8963efd1fc6a506488495d951d5263988d256128e0565b6401000276a45b8d6040516020016128f19190615fac565b6040516020818303038152906040526040518663ffffffff1660e01b8152600401612920959493929190615c8a565b6040805180830381600087803b15801561293957600080fd5b505af115801561294d573d6000803e3d6000fd5b505050506040513d601f19601f82011682018060405250810190612971919061559b565b9150915060008361298657818360000361298c565b82826000035b909850905073ffffffffffffffffffffffffffffffffffffffff8a166129b8578b81146129b857600080fd5b50505050505050949350505050565b6040517f70a0823100000000000000000000000000000000000000000000000000000000815260009073ffffffffffffffffffffffffffffffffffffffff8316906370a0823190612a1c903090600401615c42565b60206040518083038186803b158015612a3457600080fd5b505afa158015612a48573d6000803e3d6000fd5b505050506040513d601f19601f82011682018060405250810190610b5b91906159d9565b6040805160008082526020820190925273ffffffffffffffffffffffffffffffffffffffff84169083906040518082805190602001908083835b60208310612ae357805182527fffffffffffffffffffffffffffffffffffffffffffffffffffffffffffffffe09092019160209182019101612aa6565b6001836020036101000a03801982511681845116808217855250505050505090500191505060006040518083038185875af1925050503d8060008114612b45576040519150601f19603f3d011682016040523d82523d6000602084013e612b4a565b606091505b50509050806114a557604080517f08c379a000000000000000000000000000000000000000000000000000000000815260206004820152600360248201527f5354450000000000000000000000000000000000000000000000000000000000604482015290519081900360640190fd5b6060600282511015612bcb57600080fd5b815167ffffffffffffffff81118015612be357600080fd5b50604051908082528060200260200182016040528015612c0d578160200160208202803683370190505b5090508281600183510381518110612c2157fe5b602090810291909101015281517fffffffffffffffffffffffffffffffffffffffffffffffffffffffffffffffff015b8015610c7b57600080612c8e87866001860381518110612c6d57fe5b6020026020010151878681518110612c8157fe5b6020026020010151613f43565b91509150612cb0848481518110612ca157fe5b6020026020010151838361402b565b846001850381518110612cbf57fe5b602090810291909101015250507fffffffffffffffffffffffffffffffffffffffffffffffffffffffffffffffff01612c51565b6000806000612d028585614101565b604080517fffffffffffffffffffffffffffffffffffffffff000000000000000000000000606094851b811660208084019190915293851b81166034830152825160288184030181526048830184528051908501207fff0000000000000000000000000000000000000000000000000000000000000060688401529a90941b9093166069840152607d8301989098527f96e8ac4277198ff8b6f785478aa9a39f403cb768dd02cbee326c3e7da348845f609d808401919091528851808403909101815260bd909201909752805196019590952095945050505050565b7f000000000000000000000000000000000000000000000000000000000000000073ffffffffffffffffffffffffffffffffffffffff168473ffffffffffffffffffffffffffffffffffffffff16148015612e395750804710155b15612f82577f000000000000000000000000000000000000000000000000000000000000000073ffffffffffffffffffffffffffffffffffffffff1663d0e30db0826040518263ffffffff1660e01b81526004016000604051808303818588803b158015612ea657600080fd5b505af1158015612eba573d6000803e3d6000fd5b50505050507f000000000000000000000000000000000000000000000000000000000000000073ffffffffffffffffffffffffffffffffffffffff1663a9059cbb83836040518363ffffffff1660e01b8152600401808373ffffffffffffffffffffffffffffffffffffffff16815260200182815260200192505050602060405180830381600087803b158015612f5057600080fd5b505af1158015612f64573d6000803e3d6000fd5b505050506040513d6020811015612f7a57600080fd5b50610c909050565b73ffffffffffffffffffffffffffffffffffffffff8316301415612fb057612fab848383613675565b610c90565b610c9084848484613ce5565b60005b60018351038110156114a557600080848381518110612fda57fe5b6020026020010151858460010181518110612ff157fe5b60200260200101519150915060006130098383614101565b50905060006130397f00000000000000000000000000000000000000000000000000000000000000008585612cf3565b90506000806000808473ffffffffffffffffffffffffffffffffffffffff16630902f1ac6040518163ffffffff1660e01b815260040160606040518083038186803b15801561308757600080fd5b505afa15801561309b573d6000803e3d6000fd5b505050506040513d601f19601f820116820180604052508101906130bf91906158e0565b506dffffffffffffffffffffffffffff1691506dffffffffffffffffffffffffffff1691506000808773ffffffffffffffffffffffffffffffffffffffff168a73ffffffffffffffffffffffffffffffffffffffff1614613121578284613124565b83835b91509150613165828b73ffffffffffffffffffffffffffffffffffffffff166370a082318a6040518263ffffffff1660e01b81526004016112479190615c42565b95506131728683836141a6565b9450505050506000808573ffffffffffffffffffffffffffffffffffffffff168873ffffffffffffffffffffffffffffffffffffffff16146131b6578260006131ba565b6000835b91509150600060028c51038a106131d1578a613212565b6132127f0000000000000000000000000000000000000000000000000000000000000000898e8d6002018151811061320557fe5b6020026020010151612cf3565b604080516000815260208101918290527f022c0d9f0000000000000000000000000000000000000000000000000000000090915290915073ffffffffffffffffffffffffffffffffffffffff87169063022c0d9f9061327a908690869086906024810161600c565b600060405180830381600087803b15801561329457600080fd5b505af11580156132a8573d6000803e3d6000fd5b50506001909b019a50612fbf9950505050505050505050565b8082038281111561207257600080fd5b60008060008473ffffffffffffffffffffffffffffffffffffffff1663095ea7b360e01b7f000000000000000000000000000000000000000000000000000000000000000086604051602401613328929190615cdc565b604080517fffffffffffffffffffffffffffffffffffffffffffffffffffffffffffffffe08184030181529181526020820180517bffffffffffffffffffffffffffffffffffffffffffffffffffffffff167fffffffff000000000000000000000000000000000000000000000000000000009094169390931790925290516133b19190615c26565b6000604051808303816000865af19150503d80600081146133ee576040519150601f19603f3d011682016040523d82523d6000602084013e6133f3565b606091505b5091509150818015610e67575080511580610e67575080806020019051810190610e679190615493565b4290565b613429614fec565b8273ffffffffffffffffffffffffffffffffffffffff168473ffffffffffffffffffffffffffffffffffffffff161115613461579192915b506040805160608101825273ffffffffffffffffffffffffffffffffffffffff948516815292909316602083015262ffffff169181019190915290565b6000816020015173ffffffffffffffffffffffffffffffffffffffff16826000015173ffffffffffffffffffffffffffffffffffffffff16106134e057600080fd5b508051602080830151604093840151845173ffffffffffffffffffffffffffffffffffffffff94851681850152939091168385015262ffffff166060808401919091528351808403820181526080840185528051908301207fff0000000000000000000000000000000000000000000000000000000000000060a085015294901b7fffffffffffffffffffffffffffffffffffffffff0000000000000000000000001660a183015260b58201939093527fa598dd2fba360510c5a8f02f44423a4468e902df5857dbce3ca162a43a3a31ff60d5808301919091528251808303909101815260f5909101909152805191012090565b60008215806135ef575050818102818382816135ec57fe5b04145b61207257600080fd5b60008080613606848261427c565b925061361384601461437c565b905061362084601761427c565b91509193909250565b516042111590565b6060610b5b826000602b61446c565b8051606090610b5b9083906017907fffffffffffffffffffffffffffffffffffffffffffffffffffffffffffffffe90161446c565b6040805173ffffffffffffffffffffffffffffffffffffffff8481166024830152604480830185905283518084039091018152606490920183526020820180517bffffffffffffffffffffffffffffffffffffffffffffffffffffffff167fa9059cbb000000000000000000000000000000000000000000000000000000001781529251825160009485949389169392918291908083835b6020831061374a57805182527fffffffffffffffffffffffffffffffffffffffffffffffffffffffffffffffe0909201916020918201910161370d565b6001836020036101000a0380198251168184511680821785525050505050509050019150506000604051808303816000865af19150503d80600081146137ac576040519150601f19603f3d011682016040523d82523d6000602084013e6137b1565b606091505b50915091508180156137df5750805115806137df57508080602001905160208110156137dc57600080fd5b50515b6118f157604080517f08c379a000000000000000000000000000000000000000000000000000000000815260206004820152600260248201527f5354000000000000000000000000000000000000000000000000000000000000604482015290519081900360640190fd5b600080835185511461385b57600080fd5b6000855167ffffffffffffffff8111801561387557600080fd5b506040519080825280602002602001820160405280156138af57816020015b61389c61500c565b8152602001906001900390816138945790505b5090506000865167ffffffffffffffff811180156138cc57600080fd5b5060405190808252806020026020018201604052801561390657816020015b6138f361500c565b8152602001906001900390816138eb5790505b50905060005b8751811015613a36576000806139358a848151811061392757fe5b602002602001015189613a5d565b9150915061394282614653565b85848151811061394e57fe5b60200260200101516000019060020b908160020b8152505061396f81614653565b84848151811061397b57fe5b60200260200101516000019060020b908160020b8152505088838151811061399f57fe5b60200260200101518584815181106139b357fe5b6020026020010151602001906fffffffffffffffffffffffffffffffff1690816fffffffffffffffffffffffffffffffff16815250508883815181106139f557fe5b6020026020010151848481518110613a0957fe5b6020908102919091018101516fffffffffffffffffffffffffffffffff909216910152505060010161390c565b50613a4082614664565b60020b9350613a4e81614664565b60020b92505050935093915050565b600080600080613a6c8661474c565b90506000805b82811015613c8a576000806000613a888b6135f8565b9250925092506000613a9b848484614777565b905060008063ffffffff8d16613ac457613ab4836147ad565b600291820b9350900b9050613b66565b613ace838e614a45565b8160020b915050809250508273ffffffffffffffffffffffffffffffffffffffff16633850c7bd6040518163ffffffff1660e01b815260040160e06040518083038186803b158015613b1f57600080fd5b505afa158015613b33573d6000803e3d6000fd5b505050506040513d601f19601f82011682018060405250810190613b57919061591b565b50505060029290920b93505050505b60018903871415613ba7578473ffffffffffffffffffffffffffffffffffffffff168673ffffffffffffffffffffffffffffffffffffffff16109950613bb6565b613bb08e613640565b9d508597505b6000871580613c5757508673ffffffffffffffffffffffffffffffffffffffff168973ffffffffffffffffffffffffffffffffffffffff1610613c27578673ffffffffffffffffffffffffffffffffffffffff168673ffffffffffffffffffffffffffffffffffffffff1610613c57565b8573ffffffffffffffffffffffffffffffffffffffff168773ffffffffffffffffffffffffffffffffffffffff16105b90508015613c6c579b82019b9a81019a613c77565b828d039c50818c039b505b505060019095019450613a729350505050565b5082613cdb577fffffffffffffffffffffffffffffffffffffffffffffffffffffffffffffffff850294507fffffffffffffffffffffffffffffffffffffffffffffffffffffffffffffffff840293505b5050509250929050565b6040805173ffffffffffffffffffffffffffffffffffffffff85811660248301528481166044830152606480830185905283518084039091018152608490920183526020820180517bffffffffffffffffffffffffffffffffffffffffffffffffffffffff167f23b872dd00000000000000000000000000000000000000000000000000000000178152925182516000948594938a169392918291908083835b60208310613dc257805182527fffffffffffffffffffffffffffffffffffffffffffffffffffffffffffffffe09092019160209182019101613d85565b6001836020036101000a0380198251168184511680821785525050505050509050019150506000604051808303816000865af19150503d8060008114613e24576040519150601f19603f3d011682016040523d82523d6000602084013e613e29565b606091505b5091509150818015613e57575080511580613e575750808060200190516020811015613e5457600080fd5b50515b610bf157604080517f08c379a000000000000000000000000000000000000000000000000000000000815260206004820152600360248201527f5354460000000000000000000000000000000000000000000000000000000000604482015290519081900360640190fd5b6000610e6785613ed3868686613421565b614e76565b6000613f097f00000000000000000000000000000000000000000000000000000000000000006116dd868686613421565b949350505050565b60007f80000000000000000000000000000000000000000000000000000000000000008210613f3f57600080fd5b5090565b6000806000613f528585614101565b509050600080613f63888888612cf3565b73ffffffffffffffffffffffffffffffffffffffff16630902f1ac6040518163ffffffff1660e01b815260040160606040518083038186803b158015613fa857600080fd5b505afa158015613fbc573d6000803e3d6000fd5b505050506040513d6060811015613fd257600080fd5b5080516020909101516dffffffffffffffffffffffffffff918216935016905073ffffffffffffffffffffffffffffffffffffffff8781169084161461401957808261401c565b81815b90999098509650505050505050565b600080841161409b57604080517f08c379a000000000000000000000000000000000000000000000000000000000815260206004820152601a60248201527f494e53554646494349454e545f4f55545055545f414d4f554e54000000000000604482015290519081900360640190fd5b6000831180156140ab5750600082115b6140b457600080fd5b60006140cc6103e86140c686886135d4565b906135d4565b905060006140e06103e56140c686896132c1565b90506140f760018284816140f057fe5b0490614ea6565b9695505050505050565b6000808273ffffffffffffffffffffffffffffffffffffffff168473ffffffffffffffffffffffffffffffffffffffff16141561413d57600080fd5b8273ffffffffffffffffffffffffffffffffffffffff168473ffffffffffffffffffffffffffffffffffffffff161061417757828461417a565b83835b909250905073ffffffffffffffffffffffffffffffffffffffff821661419f57600080fd5b9250929050565b600080841161421657604080517f08c379a000000000000000000000000000000000000000000000000000000000815260206004820152601960248201527f494e53554646494349454e545f494e5055545f414d4f554e5400000000000000604482015290519081900360640190fd5b6000831180156142265750600082115b61422f57600080fd5b600061423d856103e56135d4565b9050600061424b82856135d4565b905060006142658361425f886103e86135d4565b90614ea6565b905080828161427057fe5b04979650505050505050565b6000818260140110156142f057604080517f08c379a000000000000000000000000000000000000000000000000000000000815260206004820152601260248201527f746f416464726573735f6f766572666c6f770000000000000000000000000000604482015290519081900360640190fd5b816014018351101561436357604080517f08c379a000000000000000000000000000000000000000000000000000000000815260206004820152601560248201527f746f416464726573735f6f75744f66426f756e64730000000000000000000000604482015290519081900360640190fd5b5001602001516c01000000000000000000000000900490565b6000818260030110156143f057604080517f08c379a000000000000000000000000000000000000000000000000000000000815260206004820152601160248201527f746f55696e7432345f6f766572666c6f77000000000000000000000000000000604482015290519081900360640190fd5b816003018351101561446357604080517f08c379a000000000000000000000000000000000000000000000000000000000815260206004820152601460248201527f746f55696e7432345f6f75744f66426f756e6473000000000000000000000000604482015290519081900360640190fd5b50016003015190565b60608182601f0110156144e057604080517f08c379a000000000000000000000000000000000000000000000000000000000815260206004820152600e60248201527f736c6963655f6f766572666c6f77000000000000000000000000000000000000604482015290519081900360640190fd5b82828401101561455157604080517f08c379a000000000000000000000000000000000000000000000000000000000815260206004820152600e60248201527f736c6963655f6f766572666c6f77000000000000000000000000000000000000604482015290519081900360640190fd5b818301845110156145c357604080517f08c379a000000000000000000000000000000000000000000000000000000000815260206004820152601160248201527f736c6963655f6f75744f66426f756e6473000000000000000000000000000000604482015290519081900360640190fd5b6060821580156145e2576040519150600082526020820160405261464a565b6040519150601f8416801560200281840101858101878315602002848b0101015b8183101561461b578051835260209283019201614603565b5050858452601f017fffffffffffffffffffffffffffffffffffffffffffffffffffffffffffffffe016604052505b50949350505050565b80600281900b8114610b5e57600080fd5b6000806000805b84518110156146f95784818151811061468057fe5b6020026020010151602001516fffffffffffffffffffffffffffffffff168582815181106146aa57fe5b60200260200101516000015160020b02830192508481815181106146ca57fe5b6020026020010151602001516fffffffffffffffffffffffffffffffff1682019150808060010191505061466b565b5080828161470357fe5b05925060008212801561471e575080828161471a57fe5b0715155b15611ddf5750507fffffffffffffffffffffffffffffffffffffffffffffffffffffffffffffffff01919050565b5160177fffffffffffffffffffffffffffffffffffffffffffffffffffffffffffffffec9091010490565b6000613f097f00000000000000000000000000000000000000000000000000000000000000006147a8868686613421565b614eb6565b6000806000808473ffffffffffffffffffffffffffffffffffffffff16633850c7bd6040518163ffffffff1660e01b815260040160e06040518083038186803b1580156147f957600080fd5b505afa15801561480d573d6000803e3d6000fd5b505050506040513d601f19601f82011682018060405250810190614831919061591b565b50939750919550935050600161ffff841611915061487d9050576040517f08c379a000000000000000000000000000000000000000000000000000000000815260040161086890615dde565b6000808673ffffffffffffffffffffffffffffffffffffffff1663252c09d7856040518263ffffffff1660e01b81526004016148b99190615ff4565b60806040518083038186803b1580156148d157600080fd5b505afa1580156148e5573d6000803e3d6000fd5b505050506040513d601f19601f820116820180604052508101906149099190615ae6565b50509150915061491761341d565b63ffffffff168263ffffffff161461493157849550614a3c565b60008361ffff1660018561ffff168761ffff1601038161494d57fe5b06905060008060008a73ffffffffffffffffffffffffffffffffffffffff1663252c09d7856040518263ffffffff1660e01b815260040161498e9190616003565b60806040518083038186803b1580156149a657600080fd5b505afa1580156149ba573d6000803e3d6000fd5b505050506040513d601f19601f820116820180604052508101906149de9190615ae6565b9350509250925080614a1c576040517f08c379a000000000000000000000000000000000000000000000000000000000815260040161086890615da7565b82860363ffffffff811683870360060b81614a3357fe5b059a5050505050505b50505050915091565b60008063ffffffff8316614aba57604080517f08c379a000000000000000000000000000000000000000000000000000000000815260206004820152600260248201527f4250000000000000000000000000000000000000000000000000000000000000604482015290519081900360640190fd5b6040805160028082526060820183526000926020830190803683370190505090508381600081518110614ae957fe5b602002602001019063ffffffff16908163ffffffff1681525050600081600181518110614b1257fe5b63ffffffff9092166020928302919091018201526040517f883bdbfd00000000000000000000000000000000000000000000000000000000815260048101828152835160248301528351600093849373ffffffffffffffffffffffffffffffffffffffff8b169363883bdbfd9388939192839260449091019185820191028083838b5b83811015614bad578181015183820152602001614b95565b505050509050019250505060006040518083038186803b158015614bd057600080fd5b505afa158015614be4573d6000803e3d6000fd5b505050506040513d6000823e601f3d9081017fffffffffffffffffffffffffffffffffffffffffffffffffffffffffffffffe01682016040908152811015614c2b57600080fd5b8101908080516040519392919084640100000000821115614c4b57600080fd5b908301906020820185811115614c6057600080fd5b8251866020820283011164010000000082111715614c7d57600080fd5b82525081516020918201928201910280838360005b83811015614caa578181015183820152602001614c92565b5050505090500160405260200180516040519392919084640100000000821115614cd357600080fd5b908301906020820185811115614ce857600080fd5b8251866020820283011164010000000082111715614d0557600080fd5b82525081516020918201928201910280838360005b83811015614d32578181015183820152602001614d1a565b5050505090500160405250505091509150600082600081518110614d5257fe5b602002602001015183600181518110614d6757fe5b6020026020010151039050600082600081518110614d8157fe5b602002602001015183600181518110614d9657fe5b60200260200101510390508763ffffffff168260060b81614db357fe5b05965060008260060b128015614ddd57508763ffffffff168260060b81614dd657fe5b0760060b15155b15614e08577fffffffffffffffffffffffffffffffffffffffffffffffffffffffffffffffff909601955b63ffffffff881673ffffffffffffffffffffffffffffffffffffffff0277ffffffffffffffffffffffffffffffffffffffff00000000602083901b1677ffffffffffffffffffffffffffffffffffffffffffffffff821681614e6657fe5b0496505050505050509250929050565b6000614e828383614eb6565b90503373ffffffffffffffffffffffffffffffffffffffff82161461207257600080fd5b8082018281101561207257600080fd5b6000816020015173ffffffffffffffffffffffffffffffffffffffff16826000015173ffffffffffffffffffffffffffffffffffffffff1610614ef857600080fd5b508051602080830151604093840151845173ffffffffffffffffffffffffffffffffffffffff94851681850152939091168385015262ffffff166060808401919091528351808403820181526080840185528051908301207fff0000000000000000000000000000000000000000000000000000000000000060a085015294901b7fffffffffffffffffffffffffffffffffffffffff0000000000000000000000001660a183015260b58201939093527fe34f199b19b2b4f47f68442619d555527d244f78a3297ea89325f843f87b8b5460d5808301919091528251808303909101815260f5909101909152805191012090565b604080516060810182526000808252602082018190529181019190915290565b604080518082019091526000808252602082015290565b8035610b5e81616158565b60008083601f84011261503f578182fd5b50813567ffffffffffffffff811115615056578182fd5b602083019150836020808302850101111561419f57600080fd5b600082601f830112615080578081fd5b81356020615095615090836160ce565b6160aa565b82815281810190858301838502870184018810156150b1578586fd5b855b858110156150ec5781356fffffffffffffffffffffffffffffffff811681146150da578788fd5b845292840192908401906001016150b3565b5090979650505050505050565b80518015158114610b5e57600080fd5b600082601f830112615119578081fd5b8135615127615090826160ec565b81815284602083860101111561513b578283fd5b816020850160208301379081016020019190915292915050565b80516dffffffffffffffffffffffffffff81168114610b5e57600080fd5b805161ffff81168114610b5e57600080fd5b803562ffffff81168114610b5e57600080fd5b8035610b5e81616189565b6000602082840312156151b4578081fd5b81356151bf81616158565b9392505050565b600080600080608085870312156151db578283fd5b84356151e681616158565b935060208501356151f681616158565b9250604085013561520681616158565b915061521460608601615185565b905092959194509250565b60008060408385031215615231578182fd5b823561523c81616158565b946020939093013593505050565b60008060006060848603121561525e578081fd5b833561526981616158565b925060208401359150604084013561528081616158565b809150509250925092565b600080600080600060a086880312156152a2578283fd5b85356152ad81616158565b94506020860135935060408601356152c481616158565b92506060860135915060808601356152db81616158565b809150509295509295909350565b600080600080608085870312156152fe578182fd5b843561530981616158565b93506020850135925060408501359150606085013561532781616158565b939692955090935050565b60008060008060008060c0878903121561534a578384fd5b863561535581616158565b9550602087013594506040870135935060608701356153738161619b565b9598949750929560808101359460a0909101359350915050565b6000806020838503121561539f578182fd5b823567ffffffffffffffff8111156153b5578283fd5b6153c18582860161502e565b90969095509350505050565b600080600080608085870312156153e2578182fd5b843567ffffffffffffffff808211156153f9578384fd5b818701915087601f83011261540c578384fd5b8135602061541c615090836160ce565b82815281810190858301885b858110156154515761543f8e8684358b0101615109565b84529284019290840190600101615428565b50909950505088013592505080821115615469578384fd5b5061547687828801615070565b93505061548560408601615185565b915061521460608601615198565b6000602082840312156154a4578081fd5b6151bf826150f9565b6000806000604084860312156154c1578081fd5b83359250602084013567ffffffffffffffff8111156154de578182fd5b6154ea8682870161502e565b9497909650939450505050565b600060208284031215615508578081fd5b813567ffffffffffffffff81111561551e578182fd5b613f0984828501615109565b60008060006060848603121561553e578081fd5b833567ffffffffffffffff811115615554578182fd5b61556086828701615109565b93505061556f60208501615185565b9150604084013561528081616189565b600060208284031215615590578081fd5b81356151bf8161617a565b600080604083850312156155ad578182fd5b505080516020909101519092909150565b600080600080606085870312156155d3578182fd5b8435935060208501359250604085013567ffffffffffffffff808211156155f8578384fd5b818701915087601f83011261560b578384fd5b813581811115615619578485fd5b88602082850101111561562a578485fd5b95989497505060200194505050565b60006020828403121561564a578081fd5b815167ffffffffffffffff811115615660578182fd5b8201601f81018413615670578182fd5b805161567e615090826160ec565b818152856020838501011115615692578384fd5b610e6782602083016020860161612c565b6000602082840312156156b4578081fd5b813567ffffffffffffffff808211156156cb578283fd5b90830190608082860312156156de578283fd5b6040516080810181811083821117156156f357fe5b604052823582811115615704578485fd5b61571087828601615109565b8252506020830135915061572382616158565b816020820152604083013560408201526060830135606082015280935050505092915050565b600060e0828403121561575a578081fd5b60405160e0810181811067ffffffffffffffff8211171561577757fe5b60405261578383615023565b815261579160208401615023565b60208201526157a260408401615185565b60408201526157b360608401615023565b60608201526080830135608082015260a083013560a08201526157d860c08401615023565b60c08201529392505050565b6000602082840312156157f5578081fd5b813567ffffffffffffffff81111561580b578182fd5b8201608081850312156151bf578182fd5b600060e08284031215610871578081fd5b600060a08284031215610871578081fd5b60006101008284031215610871578081fd5b600060208284031215615861578081fd5b813567ffffffffffffffff80821115615878578283fd5b908301906040828603121561588b578283fd5b6040516040810181811083821117156158a057fe5b6040528235828111156158b1578485fd5b6158bd87828601615109565b825250602083013592506158d083616158565b6020810192909252509392505050565b6000806000606084860312156158f4578081fd5b6158fd84615155565b925061590b60208501615155565b9150604084015161528081616189565b600080600080600080600060e0888a031215615935578485fd5b875161594081616158565b60208901519097506159518161617a565b955061595f60408901615173565b945061596d60608901615173565b935061597b60808901615173565b925060a088015161598b8161619b565b915061599960c089016150f9565b905092959891949750929550565b6000602082840312156159b8578081fd5b6151bf82615185565b6000602082840312156159d2578081fd5b5035919050565b6000602082840312156159ea578081fd5b5051919050565b60008060408385031215615a03578182fd5b823591506020830135615a1581616158565b809150509250929050565b60008060008060808587031215615a35578182fd5b843593506020850135615a4781616158565b925060408501359150606085013561532781616158565b600080600060608486031215615a72578081fd5b8335925060208401359150604084013561528081616158565b600080600080600060808688031215615aa2578283fd5b8535945060208601359350604086013567ffffffffffffffff811115615ac6578384fd5b615ad28882890161502e565b90945092505060608601356152db81616158565b60008060008060808587031215615afb578182fd5b8451615b0681616189565b8094505060208501518060060b8114615b1d578283fd5b6040860151909350615b2e81616158565b9150615214606086016150f9565b73ffffffffffffffffffffffffffffffffffffffff169052565b60008151808452615b6e81602086016020860161612c565b601f017fffffffffffffffffffffffffffffffffffffffffffffffffffffffffffffffe0169290920160200192915050565b60020b9052565b62ffffff169052565b606093841b7fffffffffffffffffffffffffffffffffffffffff000000000000000000000000908116825260e89390931b7fffffff0000000000000000000000000000000000000000000000000000000000166014820152921b166017820152602b0190565b6000828483379101908152919050565b60008251615c3881846020870161612c565b9190910192915050565b73ffffffffffffffffffffffffffffffffffffffff91909116815260200190565b73ffffffffffffffffffffffffffffffffffffffff92831681529116602082015260400190565b600073ffffffffffffffffffffffffffffffffffffffff8088168352861515602084015285604084015280851660608401525060a06080830152615cd160a0830184615b56565b979650505050505050565b73ffffffffffffffffffffffffffffffffffffffff929092168252602082015260400190565b6000602080830181845280855180835260408601915060408482028701019250838701855b82811015615d73577fffffffffffffffffffffffffffffffffffffffffffffffffffffffffffffffc0888603018452615d61858351615b56565b94509285019290850190600101615d27565b5092979650505050505050565b6000602082526151bf6020830184615b56565b6020810160058310615da157fe5b91905290565b60208082526003908201527f4f4e490000000000000000000000000000000000000000000000000000000000604082015260600190565b60208082526003908201527f4e454f0000000000000000000000000000000000000000000000000000000000604082015260600190565b60208082526012908201527f546f6f206d756368207265717565737465640000000000000000000000000000604082015260600190565b60208082526002908201527f5444000000000000000000000000000000000000000000000000000000000000604082015260600190565b60208082526013908201527f546f6f206c6974746c6520726563656976656400000000000000000000000000604082015260600190565b600060c082019050825182526020830151602083015260408301516040830152606083015160608301526080830151608083015260a083015160a083015292915050565b600061016082019050615f12828451615b3c565b6020830151615f246020840182615b3c565b506040830151615f376040840182615ba7565b506060830151615f4a6060840182615ba0565b506080830151615f5d6080840182615ba0565b5060a083015160a083015260c083015160c083015260e083015160e083015261010080840151818401525061012080840151615f9b82850182615b3c565b505061014092830151919092015290565b600060208252825160406020840152615fc86060840182615b56565b905073ffffffffffffffffffffffffffffffffffffffff60208501511660408401528091505092915050565b61ffff91909116815260200190565b90815260200190565b600085825284602083015273ffffffffffffffffffffffffffffffffffffffff84166040830152608060608301526140f76080830184615b56565b60008083357fffffffffffffffffffffffffffffffffffffffffffffffffffffffffffffffe184360301811261607b578283fd5b83018035915067ffffffffffffffff821115616095578283fd5b60200191503681900382131561419f57600080fd5b60405181810167ffffffffffffffff811182821017156160c657fe5b604052919050565b600067ffffffffffffffff8211156160e257fe5b5060209081020190565b600067ffffffffffffffff82111561610057fe5b50601f017fffffffffffffffffffffffffffffffffffffffffffffffffffffffffffffffe01660200190565b60005b8381101561614757818101518382015260200161612f565b83811115610c905750506000910152565b73ffffffffffffffffffffffffffffffffffffffff811681146114b457600080fd5b8060020b81146114b457600080fd5b63ffffffff811681146114b457600080fd5b60ff811681146114b457600080fdfea164736f6c6343000706000a",
  "linkReferences": {},
  "deployedLinkReferences": {}
}