{
  "address": "0x3c1E81A6B8D9b2332B9536F88f5D2b39a5F7E52C",
  "abi": [
    {
      "inputs": [
        {
          "internalType": "address",
          "name": "pool",
          "type": "address"
        },
        {
          "internalType": "uint32",
          "name": "period",
          "type": "uint32"
        }
      ],
      "name": "consult",
      "outputs": [
        {
          "internalType": "int24",
          "name": "timeWeightedAverageTick",
          "type": "int24"
        }
      ],
      "stateMutability": "view",
      "type": "function"
    },
    {
      "inputs": [
        {
          "internalType": "address",
          "name": "factory",
          "type": "address"
        },
        {
          "internalType": "bytes",
          "name": "_path",
          "type": "bytes"
        },
        {
          "internalType": "uint256",
          "name": "_amountIn",
          "type": "uint256"
        },
        {
          "internalType": "uint32",
          "name": "oracleConsultPeriod",
          "type": "uint32"
        }
      ],
      "name": "getOutAmounts",
      "outputs": [
        {
          "internalType": "uint256",
          "name": "amountOut",
          "type": "uint256"
        }
      ],
      "stateMutability": "view",
      "type": "function"
    },
    {
      "inputs": [
        {
          "internalType": "address",
          "name": "factory",
          "type": "address"
        },
        {
          "internalType": "bytes",
          "name": "_path",
          "type": "bytes"
        },
        {
          "internalType": "uint256",
          "name": "_amountIn",
          "type": "uint256"
        }
      ],
      "name": "getOutAmountsCurTick",
      "outputs": [
        {
          "internalType": "uint256",
          "name": "amountOut",
          "type": "uint256"
        }
      ],
      "stateMutability": "view",
      "type": "function"
    },
    {
      "inputs": [
        {
          "internalType": "address",
          "name": "factory",
          "type": "address"
        },
        {
          "internalType": "address",
          "name": "tokenA",
          "type": "address"
        },
        {
          "internalType": "address",
          "name": "tokenB",
          "type": "address"
        },
        {
          "internalType": "uint24",
          "name": "fee",
          "type": "uint24"
        }
      ],
      "name": "getPool",
      "outputs": [
        {
          "internalType": "address",
          "name": "",
          "type": "address"
        }
      ],
      "stateMutability": "pure",
      "type": "function"
    },
    {
      "inputs": [
        {
          "internalType": "address",
          "name": "factory",
          "type": "address"
        },
        {
          "internalType": "address",
          "name": "tokenA",
          "type": "address"
        },
        {
          "internalType": "address",
          "name": "tokenB",
          "type": "address"
        },
        {
          "internalType": "uint24",
          "name": "fee",
          "type": "uint24"
        },
        {
          "internalType": "bytes32",
          "name": "initCodeHash",
          "type": "bytes32"
        }
      ],
      "name": "getPool",
      "outputs": [
        {
          "internalType": "address",
          "name": "",
          "type": "address"
        }
      ],
      "stateMutability": "pure",
      "type": "function"
    },
    {
      "inputs": [
        {
          "internalType": "int24",
          "name": "tick",
          "type": "int24"
        },
        {
          "internalType": "uint128",
          "name": "baseAmount",
          "type": "uint128"
        },
        {
          "internalType": "address",
          "name": "baseToken",
          "type": "address"
        },
        {
          "internalType": "address",
          "name": "quoteToken",
          "type": "address"
        }
      ],
      "name": "getQuoteAtTick",
      "outputs": [
        {
          "internalType": "uint256",
          "name": "quoteAmount",
          "type": "uint256"
        }
      ],
      "stateMutability": "pure",
      "type": "function"
    }
  ],
  "transactionHash": "0xee33e29632ad237ad2e07167f74c709ae53cea9b6342592eaf3c9ffcd130038f",
  "args": [],
  "numDeployments": 1,
  "solcInputHash": "ab08977d021f44c9b855b887ce31da00",
  "bytecode": "0x6116c761003a600b82828239805160001a60731461002d57634e487b7160e01b600052600060045260246000fd5b30600052607381538281f3fe730000000000000000000000000000000000000000301460806040526004361061006c5760003560e01c806343c57a27146100715780634e6c8ed81461009757806382413489146100c257806393eaab8a146100e85780639d849295146100fb578063a033a11a1461010e575b600080fd5b61008461007f366004610f5e565b610121565b6040519081526020015b60405180910390f35b6100aa6100a5366004610fde565b61022f565b6040516001600160a01b03909116815260200161008e565b6100d56100d036600461104c565b610271565b60405160029190910b815260200161008e565b6100846100f6366004611138565b610435565b6100aa610109366004611191565b61051d565b61008461011c3660046111f3565b61053e565b60008061012d866105c9565b90506001600160801b036001600160a01b038216116101b357600061015b6001600160a01b03831680611268565b9050836001600160a01b0316856001600160a01b0316106101935761018e600160c01b876001600160801b0316836109e1565b6101ab565b6101ab81876001600160801b0316600160c01b6109e1565b925050610226565b60006101d26001600160a01b03831680680100000000000000006109e1565b9050836001600160a01b0316856001600160a01b03161061020a57610205600160801b876001600160801b0316836109e1565b610222565b61022281876001600160801b0316600160801b6109e1565b9250505b50949350505050565b600061026685610240868686610aa9565b7fa598dd2fba360510c5a8f02f44423a4468e902df5857dbce3ca162a43a3a31ff610b14565b90505b949350505050565b60008163ffffffff166000036102b35760405162461bcd60e51b8152602060048201526002602482015261042560f41b60448201526064015b60405180910390fd5b60408051600280825260608201835260009260208301908036833701905050905082816000815181106102e8576102e8611287565b602002602001019063ffffffff16908163ffffffff168152505060008160018151811061031757610317611287565b63ffffffff9092166020928302919091019091015260405163883bdbfd60e01b81526000906001600160a01b0386169063883bdbfd9061035b90859060040161129d565b600060405180830381865afa158015610378573d6000803e3d6000fd5b505050506040513d6000823e601f3d908101601f191682016040526103a0919081019061137f565b5090506000816000815181106103b8576103b8611287565b6020026020010151826001815181106103d3576103d3611287565b60200260200101516103e5919061144b565b90506103f5600386900b826114b1565b935060008160060b1280156104195750610413600386900b826114ef565b60060b15155b1561042c578361042881611511565b9450505b50505092915050565b600081835b600080600061044884610bd5565b925092509250600061045c8a85858561022f565b90506000816001600160a01b0316633850c7bd6040518163ffffffff1660e01b815260040160e060405180830381865afa15801561049e573d6000803e3d6000fd5b505050506040513d601f19601f820116820180604052508101906104c29190611546565b505050505091505060006104d882898888610121565b90508097506104e687610c11565b156104fb576104f487610c4b565b965061050b565b8798505050505050505050610516565b50505050505061043a565b9392505050565b60006105348661052e878787610aa9565b84610b14565b9695505050505050565b60008083855b600080600061055284610bd5565b92509250925060006105668c85858561022f565b9050600061057f610577838c610271565b888787610121565b96508690508761058e816115e3565b98505061059a86610c11565b156105af576105a886610c4b565b95506105bf565b8698505050505050505050610269565b5050505050610544565b60008060008360020b126105e0578260020b6105ed565b8260020b6105ed906115fc565b90506105fc620d89e719611618565b60020b8111156106325760405162461bcd60e51b81526020600482015260016024820152601560fa1b60448201526064016102aa565b60008160011660000361064957600160801b61065b565b6ffffcb933bd6fad37aa2d162d1a5940015b70ffffffffffffffffffffffffffffffffff169050600282161561069a576080610695826ffff97272373d413259a46990580e213a611268565b901c90505b60048216156106c45760806106bf826ffff2e50f5f656932ef12357cf3c7fdcc611268565b901c90505b60088216156106ee5760806106e9826fffe5caca7e10e4e61c3624eaa0941cd0611268565b901c90505b6010821615610718576080610713826fffcb9843d60f6159c9db58835c926644611268565b901c90505b602082161561074257608061073d826fff973b41fa98c081472e6896dfb254c0611268565b901c90505b604082161561076c576080610767826fff2ea16466c96a3843ec78b326b52861611268565b901c90505b6080821615610796576080610791826ffe5dee046a99a2a811c461f1969c3053611268565b901c90505b6101008216156107c15760806107bc826ffcbe86c7900a88aedcffc83b479aa3a4611268565b901c90505b6102008216156107ec5760806107e7826ff987a7253ac413176f2b074cf7815e54611268565b901c90505b610400821615610817576080610812826ff3392b0822b70005940c7a398e4b70f3611268565b901c90505b61080082161561084257608061083d826fe7159475a2c29b7443b29c7fa6e889d9611268565b901c90505b61100082161561086d576080610868826fd097f3bdfd2022b8845ad8f792aa5825611268565b901c90505b612000821615610898576080610893826fa9f746462d870fdf8a65dc1f90e061e5611268565b901c90505b6140008216156108c35760806108be826f70d869a156d2a1b890bb3df62baf32f7611268565b901c90505b6180008216156108ee5760806108e9826f31be135f97d08fd981231505542fcfa6611268565b901c90505b6201000082161561091a576080610915826f09aa508b5b7a84e1c677de54f3e99bc9611268565b901c90505b62020000821615610945576080610940826e5d6af8dedb81196699c329225ee604611268565b901c90505b6204000082161561096f57608061096a826d2216e584f5fa1ea926041bedfe98611268565b901c90505b62080000821615610997576080610992826b048a170391f7dc42444e8fa2611268565b901c90505b60008460020b13156109b2576109af8160001961163a565b90505b6109c16401000000008261164e565b156109cd5760016109d0565b60005b6102699060ff16602083901c611662565b60008082116109ef57600080fd5b60008060001985870985870292508281108382030391505080600003610a1a57508290049050610516565b808411610a2657600080fd5b600084868809808403938111909203919050600085610a478160001961167a565b610a52906001611662565b16958690049560026003880281188089028203028089028203028089028203028089028203028089028203028089029091030260008290038290046001019490940294049390931791909102925050509392505050565b6040805160608101825260008082526020820181905291810191909152826001600160a01b0316846001600160a01b03161115610ae4579192915b50604080516060810182526001600160a01b03948516815292909316602083015262ffffff169181019190915290565b600082602001516001600160a01b031683600001516001600160a01b031610610b3c57600080fd5b50815160208084015160409485015185516001600160a01b0394851681850152939091168386015262ffffff166060808401919091528451808403820181526080840186528051908301206001600160f81b031960a085015295901b6bffffffffffffffffffffffff191660a183015260b582019490945260d5808201929092528251808203909201825260f501909152805191012090565b60008080610be38482610c82565b9250610bf0846014610d36565b9050610c08610c0160036014611662565b8590610c82565b91509193909250565b6000610c1f60036014611662565b6014610c2c600382611662565b610c369190611662565b610c409190611662565b825110159050919050565b6060610c7c610c5c60036014611662565b610c6860036014611662565b8451610c74919061167a565b849190610de1565b92915050565b600081610c90816014611662565b1015610cd35760405162461bcd60e51b8152602060048201526012602482015271746f416464726573735f6f766572666c6f7760701b60448201526064016102aa565b610cde826014611662565b83511015610d265760405162461bcd60e51b8152602060048201526015602482015274746f416464726573735f6f75744f66426f756e647360581b60448201526064016102aa565b500160200151600160601b900490565b600081610d44816003611662565b1015610d865760405162461bcd60e51b8152602060048201526011602482015270746f55696e7432345f6f766572666c6f7760781b60448201526064016102aa565b610d91826003611662565b83511015610dd85760405162461bcd60e51b8152602060048201526014602482015273746f55696e7432345f6f75744f66426f756e647360601b60448201526064016102aa565b50016003015190565b606081610def81601f611662565b1015610e2e5760405162461bcd60e51b815260206004820152600e60248201526d736c6963655f6f766572666c6f7760901b60448201526064016102aa565b82610e398382611662565b1015610e785760405162461bcd60e51b815260206004820152600e60248201526d736c6963655f6f766572666c6f7760901b60448201526064016102aa565b610e828284611662565b84511015610ec65760405162461bcd60e51b8152602060048201526011602482015270736c6963655f6f75744f66426f756e647360781b60448201526064016102aa565b606082158015610ee55760405191506000825260208201604052610226565b6040519150601f8416801560200281840101858101878315602002848b0101015b81831015610f1e578051835260209283019201610f06565b5050858452601f01601f19166040525050949350505050565b8060020b8114610f4657600080fd5b50565b6001600160a01b0381168114610f4657600080fd5b60008060008060808587031215610f7457600080fd5b8435610f7f81610f37565b935060208501356001600160801b0381168114610f9b57600080fd5b92506040850135610fab81610f49565b91506060850135610fbb81610f49565b939692955090935050565b803562ffffff81168114610fd957600080fd5b919050565b60008060008060808587031215610ff457600080fd5b8435610fff81610f49565b9350602085013561100f81610f49565b9250604085013561101f81610f49565b915061102d60608601610fc6565b905092959194509250565b803563ffffffff81168114610fd957600080fd5b6000806040838503121561105f57600080fd5b823561106a81610f49565b915061107860208401611038565b90509250929050565b634e487b7160e01b600052604160045260246000fd5b604051601f8201601f1916810167ffffffffffffffff811182821017156110c0576110c0611081565b604052919050565b600082601f8301126110d957600080fd5b813567ffffffffffffffff8111156110f3576110f3611081565b611106601f8201601f1916602001611097565b81815284602083860101111561111b57600080fd5b816020850160208301376000918101602001919091529392505050565b60008060006060848603121561114d57600080fd5b833561115881610f49565b9250602084013567ffffffffffffffff81111561117457600080fd5b611180868287016110c8565b925050604084013590509250925092565b600080600080600060a086880312156111a957600080fd5b85356111b481610f49565b945060208601356111c481610f49565b935060408601356111d481610f49565b92506111e260608701610fc6565b949793965091946080013592915050565b6000806000806080858703121561120957600080fd5b843561121481610f49565b9350602085013567ffffffffffffffff81111561123057600080fd5b61123c878288016110c8565b9350506040850135915061102d60608601611038565b634e487b7160e01b600052601160045260246000fd5b600081600019048311821515161561128257611282611252565b500290565b634e487b7160e01b600052603260045260246000fd5b6020808252825182820181905260009190848201906040850190845b818110156112db57835163ffffffff16835292840192918401916001016112b9565b50909695505050505050565b600067ffffffffffffffff82111561130157611301611081565b5060051b60200190565b600082601f83011261131c57600080fd5b8151602061133161132c836112e7565b611097565b82815260059290921b8401810191818101908684111561135057600080fd5b8286015b8481101561137457805161136781610f49565b8352918301918301611354565b509695505050505050565b6000806040838503121561139257600080fd5b825167ffffffffffffffff808211156113aa57600080fd5b818501915085601f8301126113be57600080fd5b815160206113ce61132c836112e7565b82815260059290921b840181019181810190898411156113ed57600080fd5b948201945b8386101561141b5785518060060b811461140c5760008081fd5b825294820194908201906113f2565b9188015191965090935050508082111561143457600080fd5b506114418582860161130b565b9150509250929050565b60008160060b8360060b6000811281667fffffffffffff190183128115161561147657611476611252565b81667fffffffffffff01831381161561149157611491611252565b5090039392505050565b634e487b7160e01b600052601260045260246000fd5b60008160060b8360060b806114c8576114c861149b565b667fffffffffffff198214600019821416156114e6576114e6611252565b90059392505050565b60008260060b806115025761150261149b565b808360060b0791505092915050565b60008160020b627fffff19810361152a5761152a611252565b6000190192915050565b805161ffff81168114610fd957600080fd5b600080600080600080600060e0888a03121561156157600080fd5b875161156c81610f49565b602089015190975061157d81610f37565b955061158b60408901611534565b945061159960608901611534565b93506115a760808901611534565b925060a088015160ff811681146115bd57600080fd5b60c089015190925080151581146115d357600080fd5b8091505092959891949750929550565b6000600182016115f5576115f5611252565b5060010190565b6000600160ff1b820161161157611611611252565b5060000390565b60008160020b627fffff19810361163157611631611252565b60000392915050565b6000826116495761164961149b565b500490565b60008261165d5761165d61149b565b500690565b6000821982111561167557611675611252565b500190565b60008282101561168c5761168c611252565b50039056fea2646970667358221220f770c1ad6c9b9901f06b33c70e52f8bc71fabecae4ad9cc02fcba418562e407864736f6c634300080f0033",
  "devdoc": {
    "kind": "dev",
    "methods": {
      "consult(address,uint32)": {
        "params": {
          "period": "Number of seconds in the past to start calculating time-weighted average",
          "pool": "Address of Uniswap V3 pool that we want to observe"
        },
        "returns": {
          "timeWeightedAverageTick": "The time-weighted average tick from (block.timestamp - period) to block.timestamp"
        }
      },
      "getQuoteAtTick(int24,uint128,address,address)": {
        "params": {
          "baseAmount": "Amount of token to be converted",
          "baseToken": "Address of an ERC20 token contract used as the baseAmount denomination",
          "quoteToken": "Address of an ERC20 token contract used as the quoteAmount denomination",
          "tick": "Tick value used to calculate the quote"
        },
        "returns": {
          "quoteAmount": "Amount of quoteToken received for baseAmount of baseToken"
        }
      }
    },
    "title": "Oracle library",
    "version": 1
  },
  "userdoc": {
    "kind": "user",
    "methods": {
      "consult(address,uint32)": {
        "notice": "Fetches time-weighted average tick using Uniswap V3 oracle"
      },
      "getQuoteAtTick(int24,uint128,address,address)": {
        "notice": "Given a tick and a token amount, calculates the amount of token received in exchange"
      }
    },
    "notice": "Provides functions to integrate with V3 pool oracle",
    "version": 1
  },
  "storageLayout": {
    "storage": [],
    "types": null
  }
}