{
  "address": "0xdF40487BB637275754FA4dE9Ad84148Da0eF1CC1",
  "abi": [
    {
      "inputs": [
        {
          "internalType": "address",
          "name": "_entryPoint",
          "type": "address"
        },
        {
          "internalType": "address",
          "name": "_accountImplementation",
          "type": "address"
        }
      ],
      "stateMutability": "nonpayable",
      "type": "constructor"
    },
    {
      "anonymous": false,
      "inputs": [
        {
          "indexed": false,
          "internalType": "address",
          "name": "owner",
          "type": "address"
        },
        {
          "indexed": false,
          "internalType": "uint256",
          "name": "salt",
          "type": "uint256"
        },
        {
          "indexed": false,
          "internalType": "address",
          "name": "account",
          "type": "address"
        }
      ],
      "name": "CreatedAccount",
      "type": "event"
    },
    {
      "anonymous": false,
      "inputs": [
        {
          "indexed": false,
          "internalType": "address",
          "name": "_entryPoint",
          "type": "address"
        },
        {
          "indexed": false,
          "internalType": "address",
          "name": "_accountImplementation",
          "type": "address"
        }
      ],
      "name": "SetAddress",
      "type": "event"
    },
    {
      "inputs": [],
      "name": "accountImplementation",
      "outputs": [
        {
          "internalType": "address",
          "name": "",
          "type": "address"
        }
      ],
      "stateMutability": "view",
      "type": "function"
    },
    {
      "inputs": [
        {
          "internalType": "address",
          "name": "owner",
          "type": "address"
        },
        {
          "internalType": "uint256",
          "name": "salt",
          "type": "uint256"
        }
      ],
      "name": "createAccount",
      "outputs": [
        {
          "internalType": "address",
          "name": "ret",
          "type": "address"
        }
      ],
      "stateMutability": "nonpayable",
      "type": "function"
    },
    {
      "inputs": [],
      "name": "entryPoint",
      "outputs": [
        {
          "internalType": "address",
          "name": "",
          "type": "address"
        }
      ],
      "stateMutability": "view",
      "type": "function"
    },
    {
      "inputs": [
        {
          "internalType": "address",
          "name": "owner",
          "type": "address"
        },
        {
          "internalType": "uint256",
          "name": "salt",
          "type": "uint256"
        }
      ],
      "name": "getAddress",
      "outputs": [
        {
          "internalType": "address",
          "name": "",
          "type": "address"
        }
      ],
      "stateMutability": "view",
      "type": "function"
    }
  ],
  "transactionHash": "0x9b727295206c16d0d75a0dccd522cfbc42934b55b98f569ea44eec494a2ea5dc",
  "args": [
    "0x444Baeef99eD68B14A3D67Cc1452D8f8Aa406136",
    "0x3901315DDDF7F4367C38cE0Ad3f464E5345Af18E"
  ],
  "numDeployments": 1,
  "solcInputHash": "ab08977d021f44c9b855b887ce31da00",
  "bytecode": "0x60c060405234801561001057600080fd5b50604051610c23380380610c2383398101604081905261002f91610062565b6001600160a01b039182166080521660a052610095565b80516001600160a01b038116811461005d57600080fd5b919050565b6000806040838503121561007557600080fd5b61007e83610046565b915061008c60208401610046565b90509250929050565b60805160a051610b5d6100c66000396000818160560152818161011f01526102380152600060bf0152610b5d6000f3fe608060405234801561001057600080fd5b506004361061004c5760003560e01c806311464fbe146100515780635fbfb9cf146100945780638cb84e18146100a7578063b0d691fe146100ba575b600080fd5b6100787f000000000000000000000000000000000000000000000000000000000000000081565b6040516001600160a01b03909116815260200160405180910390f35b6100786100a2366004610313565b6100e1565b6100786100b5366004610313565b6101f9565b6100787f000000000000000000000000000000000000000000000000000000000000000081565b6000806100ee84846101f9565b90506001600160a01b0381163b8015610109575090506101f3565b6040516001600160a01b038616602482015284907f00000000000000000000000000000000000000000000000000000000000000009060440160408051601f198184030181529181526020820180516001600160e01b031663189acdbd60e31b1790525161017690610306565b61018192919061037b565b8190604051809103906000f59050801580156101a1573d6000803e3d6000fd5b50604080516001600160a01b0388811682526020820188905283168183015290519194507fcf81324eceea361fb573937050ae86aaa04663a869912adfc3ab01854799b583919081900360600190a150505b92915050565b60006102cd8260001b6040518060200161021290610306565b601f1982820381018352601f9091011660408190526001600160a01b03871660248201527f00000000000000000000000000000000000000000000000000000000000000009060440160408051601f19818403018152918152602080830180516001600160e01b031663189acdbd60e31b17905290516102949392910161037b565b60408051601f19818403018152908290526102b292916020016103bd565b604051602081830303815290604052805190602001206102d4565b9392505050565b60006102cd8383306000604051836040820152846020820152828152600b8101905060ff815360559020949350505050565b61073b806103ed83390190565b6000806040838503121561032657600080fd5b82356001600160a01b038116811461033d57600080fd5b946020939093013593505050565b60005b8381101561036657818101518382015260200161034e565b83811115610375576000848401525b50505050565b60018060a01b038316815260406020820152600082518060408401526103a881606085016020870161034b565b601f01601f1916919091016060019392505050565b600083516103cf81846020880161034b565b8351908301906103e381836020880161034b565b0194935050505056fe608060405260405161073b38038061073b83398101604081905261002291610321565b61002e82826000610035565b505061043e565b61003e8361006b565b60008251118061004b5750805b156100665761006483836100ab60201b6100291760201c565b505b505050565b610074816100d7565b6040516001600160a01b038216907fbc7cd75a20ee27fd9adebab32041f755214dbc6bffa90cc0225b39da2e5c2d3b90600090a250565b60606100d08383604051806060016040528060278152602001610714602791396101a9565b9392505050565b6100ea8161022260201b6100551760201c565b6101515760405162461bcd60e51b815260206004820152602d60248201527f455243313936373a206e657720696d706c656d656e746174696f6e206973206e60448201526c1bdd08184818dbdb9d1c9858dd609a1b60648201526084015b60405180910390fd5b806101887f360894a13ba1a3210667c828492db98dca3e2076cc3735a920a3ca505d382bbc60001b61023160201b6100641760201c565b80546001600160a01b0319166001600160a01b039290921691909117905550565b6060600080856001600160a01b0316856040516101c691906103ef565b600060405180830381855af49150503d8060008114610201576040519150601f19603f3d011682016040523d82523d6000602084013e610206565b606091505b50909250905061021886838387610234565b9695505050505050565b6001600160a01b03163b151590565b90565b606083156102a357825160000361029c576001600160a01b0385163b61029c5760405162461bcd60e51b815260206004820152601d60248201527f416464726573733a2063616c6c20746f206e6f6e2d636f6e74726163740000006044820152606401610148565b50816102ad565b6102ad83836102b5565b949350505050565b8151156102c55781518083602001fd5b8060405162461bcd60e51b8152600401610148919061040b565b634e487b7160e01b600052604160045260246000fd5b60005b838110156103105781810151838201526020016102f8565b838111156100645750506000910152565b6000806040838503121561033457600080fd5b82516001600160a01b038116811461034b57600080fd5b60208401519092506001600160401b038082111561036857600080fd5b818501915085601f83011261037c57600080fd5b81518181111561038e5761038e6102df565b604051601f8201601f19908116603f011681019083821181831017156103b6576103b66102df565b816040528281528860208487010111156103cf57600080fd5b6103e08360208301602088016102f5565b80955050505050509250929050565b600082516104018184602087016102f5565b9190910192915050565b602081526000825180602084015261042a8160408501602087016102f5565b601f01601f19169190910160400192915050565b6102c78061044d6000396000f3fe60806040523661001357610011610017565b005b6100115b610027610022610067565b61009f565b565b606061004e838360405180606001604052806027815260200161026b602791396100c3565b9392505050565b6001600160a01b03163b151590565b90565b600061009a7f360894a13ba1a3210667c828492db98dca3e2076cc3735a920a3ca505d382bbc546001600160a01b031690565b905090565b3660008037600080366000845af43d6000803e8080156100be573d6000f35b3d6000fd5b6060600080856001600160a01b0316856040516100e0919061021b565b600060405180830381855af49150503d806000811461011b576040519150601f19603f3d011682016040523d82523d6000602084013e610120565b606091505b50915091506101318683838761013b565b9695505050505050565b606083156101af5782516000036101a8576001600160a01b0385163b6101a85760405162461bcd60e51b815260206004820152601d60248201527f416464726573733a2063616c6c20746f206e6f6e2d636f6e747261637400000060448201526064015b60405180910390fd5b50816101b9565b6101b983836101c1565b949350505050565b8151156101d15781518083602001fd5b8060405162461bcd60e51b815260040161019f9190610237565b60005b838110156102065781810151838201526020016101ee565b83811115610215576000848401525b50505050565b6000825161022d8184602087016101eb565b9190910192915050565b60208152600082518060208401526102568160408501602087016101eb565b601f01601f1916919091016040019291505056fe416464726573733a206c6f772d6c6576656c2064656c65676174652063616c6c206661696c6564a264697066735822122016e5b5680e983aaf8c73fb0288ec8cc0c11b060a2615733032b555895540eaa464736f6c634300080f0033416464726573733a206c6f772d6c6576656c2064656c65676174652063616c6c206661696c6564a26469706673582212203641fd5c8da1fc0554489e392f82bc29a5c47f7257cd88ba89caafa48400d36964736f6c634300080f0033",
  "devdoc": {
    "kind": "dev",
    "methods": {},
    "version": 1
  },
  "userdoc": {
    "kind": "user",
    "methods": {
      "createAccount(address,uint256)": {
        "notice": "create an account, and return its address. returns the address even if the account is already deployed. Note that during UserOperation execution, this method is called only if the account is not deployed. This method returns an existing account address so that entryPoint.getSenderAddress() would work even after account creation"
      },
      "getAddress(address,uint256)": {
        "notice": "calculate the counterfactual address of this account as it would be returned by createAccount()"
      }
    },
    "notice": "A sample factory contract for TokamakAccount A UserOperations \"initCode\" holds the address of the factory, and a method call (to createAccount, in this sample factory). The factory's createAccount returns the target account address even if it is already installed. This way, the entryPoint.getSenderAddress() can be called either before or after the account is created.",
    "version": 1
  },
  "storageLayout": {
    "storage": [],
    "types": null
  }
}