{
  "_format": "hh-sol-artifact-1",
  "contractName": "TokamakOracle",
  "sourceName": "contracts/oracle/TokamakOracle.sol",
  "abi": [
    {
      "inputs": [
        {
          "internalType": "address",
          "name": "_ownerAddr",
          "type": "address"
        }
      ],
      "stateMutability": "nonpayable",
      "type": "constructor"
    },
    {
      "anonymous": false,
      "inputs": [
        {
          "indexed": false,
          "internalType": "address",
          "name": "token",
          "type": "address"
        },
        {
          "indexed": false,
          "internalType": "bytes[]",
          "name": "poolPaths",
          "type": "bytes[]"
        }
      ],
      "name": "ChangedPricePathInfo",
      "type": "event"
    },
    {
      "anonymous": false,
      "inputs": [
        {
          "indexed": true,
          "internalType": "address",
          "name": "previousOwner",
          "type": "address"
        },
        {
          "indexed": true,
          "internalType": "address",
          "name": "newOwner",
          "type": "address"
        }
      ],
      "name": "OwnershipTransferred",
      "type": "event"
    },
    {
      "anonymous": false,
      "inputs": [
        {
          "indexed": false,
          "internalType": "uint256",
          "name": "amount",
          "type": "uint256"
        }
      ],
      "name": "SetFixedTONPrice",
      "type": "event"
    },
    {
      "inputs": [
        {
          "internalType": "address",
          "name": "feeToken",
          "type": "address"
        },
        {
          "internalType": "bytes[]",
          "name": "pathes",
          "type": "bytes[]"
        }
      ],
      "name": "addTokenPricePaths",
      "outputs": [],
      "stateMutability": "nonpayable",
      "type": "function"
    },
    {
      "inputs": [],
      "name": "fixedPriceTONPerETH",
      "outputs": [
        {
          "internalType": "uint256",
          "name": "",
          "type": "uint256"
        }
      ],
      "stateMutability": "view",
      "type": "function"
    },
    {
      "inputs": [],
      "name": "fixedPriceTOSPerETH",
      "outputs": [
        {
          "internalType": "uint256",
          "name": "",
          "type": "uint256"
        }
      ],
      "stateMutability": "view",
      "type": "function"
    },
    {
      "inputs": [
        {
          "internalType": "address",
          "name": "feeToken",
          "type": "address"
        },
        {
          "internalType": "uint256",
          "name": "ethOutput",
          "type": "uint256"
        }
      ],
      "name": "getTokenValueOfEth",
      "outputs": [
        {
          "internalType": "uint256",
          "name": "tokenInput",
          "type": "uint256"
        }
      ],
      "stateMutability": "view",
      "type": "function"
    },
    {
      "inputs": [
        {
          "internalType": "uint256",
          "name": "ethOutput",
          "type": "uint256"
        }
      ],
      "name": "getTokenValueOfEth",
      "outputs": [
        {
          "internalType": "uint256",
          "name": "tokenInput",
          "type": "uint256"
        }
      ],
      "stateMutability": "view",
      "type": "function"
    },
    {
      "inputs": [
        {
          "internalType": "address",
          "name": "_ton",
          "type": "address"
        },
        {
          "internalType": "address",
          "name": "_oracleLibrary",
          "type": "address"
        },
        {
          "internalType": "address",
          "name": "_uniswapV3Factory",
          "type": "address"
        }
      ],
      "name": "initialize",
      "outputs": [],
      "stateMutability": "nonpayable",
      "type": "function"
    },
    {
      "inputs": [],
      "name": "oracleLibrary",
      "outputs": [
        {
          "internalType": "address",
          "name": "",
          "type": "address"
        }
      ],
      "stateMutability": "view",
      "type": "function"
    },
    {
      "inputs": [],
      "name": "ovmGasOracle",
      "outputs": [
        {
          "internalType": "address",
          "name": "",
          "type": "address"
        }
      ],
      "stateMutability": "view",
      "type": "function"
    },
    {
      "inputs": [],
      "name": "owner",
      "outputs": [
        {
          "internalType": "address",
          "name": "",
          "type": "address"
        }
      ],
      "stateMutability": "view",
      "type": "function"
    },
    {
      "inputs": [
        {
          "internalType": "address",
          "name": "",
          "type": "address"
        },
        {
          "internalType": "uint256",
          "name": "",
          "type": "uint256"
        }
      ],
      "name": "pricePaths",
      "outputs": [
        {
          "internalType": "bytes",
          "name": "",
          "type": "bytes"
        }
      ],
      "stateMutability": "view",
      "type": "function"
    },
    {
      "inputs": [],
      "name": "renounceOwnership",
      "outputs": [],
      "stateMutability": "nonpayable",
      "type": "function"
    },
    {
      "inputs": [
        {
          "internalType": "uint256",
          "name": "_fixedPriceTONPerETH",
          "type": "uint256"
        }
      ],
      "name": "setFixedTONPrice",
      "outputs": [],
      "stateMutability": "nonpayable",
      "type": "function"
    },
    {
      "inputs": [
        {
          "internalType": "uint256",
          "name": "_fixedPriceTOSPerETH",
          "type": "uint256"
        }
      ],
      "name": "setFixedTOSPrice",
      "outputs": [],
      "stateMutability": "nonpayable",
      "type": "function"
    },
    {
      "inputs": [],
      "name": "ton",
      "outputs": [
        {
          "internalType": "address",
          "name": "",
          "type": "address"
        }
      ],
      "stateMutability": "view",
      "type": "function"
    },
    {
      "inputs": [
        {
          "internalType": "address",
          "name": "newOwner",
          "type": "address"
        }
      ],
      "name": "transferOwnership",
      "outputs": [],
      "stateMutability": "nonpayable",
      "type": "function"
    },
    {
      "inputs": [],
      "name": "uniswapV3Factory",
      "outputs": [
        {
          "internalType": "address",
          "name": "",
          "type": "address"
        }
      ],
      "stateMutability": "view",
      "type": "function"
    },
    {
      "inputs": [
        {
          "internalType": "address",
          "name": "feeToken",
          "type": "address"
        }
      ],
      "name": "viewTokenPricePaths",
      "outputs": [
        {
          "internalType": "bytes[]",
          "name": "",
          "type": "bytes[]"
        }
      ],
      "stateMutability": "view",
      "type": "function"
    }
  ],
  "bytecode": "0x608060405234801561001057600080fd5b506040516111f93803806111f983398101604081905261002f9161008e565b6100388161003e565b506100be565b600080546001600160a01b038381166001600160a01b0319831681178455604051919092169283917f8be0079c531659141344cd1fd0a4f28419497f9722a3daafe3b4186f6b6457e09190a35050565b6000602082840312156100a057600080fd5b81516001600160a01b03811681146100b757600080fd5b9392505050565b61112c806100cd6000396000f3fe608060405234801561001057600080fd5b506004361061010b5760003560e01c80638cb5c7f5116100a2578063c0a0b17b11610071578063c0a0b17b14610217578063c0c53b8b1461022a578063cc48b9471461023d578063d1eca9cf14610250578063f2fde38b1461026357600080fd5b80638cb5c7f5146101c35780638da5cb5b146101d15780639329c26a146101e4578063aa5f4f52146101f757600080fd5b806348c0d499116100de57806348c0d4991461017f5780635b549182146101885780635f22acf71461019b578063715018a6146101bb57600080fd5b806326fca81c146101105780632ed3de8e1461014057806330089701146101555780633ea08d181461016c575b600080fd5b600154610123906001600160a01b031681565b6040516001600160a01b0390911681526020015b60405180910390f35b61015361014e366004610b72565b610276565b005b61015e60055481565b604051908152602001610137565b61015361017a366004610b72565b610305565b61015e60045481565b600254610123906001600160a01b031681565b6101ae6101a9366004610ba7565b6103c5565b6040516101379190610c1e565b61015361047e565b610123600f602160991b0181565b600054610123906001600160a01b031681565b61015e6101f2366004610ba7565b610492565b61020a610205366004610c31565b610682565b6040516101379190610c4c565b610153610225366004610cae565b610771565b610153610238366004610d34565b6108ca565b600354610123906001600160a01b031681565b61015e61025e366004610b72565b610989565b610153610271366004610c31565b6109b2565b80806000036102b95760405162461bcd60e51b815260206004820152600a6024820152697a65726f2076616c756560b01b60448201526064015b60405180910390fd5b6102c1610a2b565b81600554036102ff5760405162461bcd60e51b815260206004820152600a60248201526973616d652076616c756560b01b60448201526064016102b0565b50600555565b80806000036103435760405162461bcd60e51b815260206004820152600a6024820152697a65726f2076616c756560b01b60448201526064016102b0565b61034b610a2b565b81600454036103895760405162461bcd60e51b815260206004820152600a60248201526973616d652076616c756560b01b60448201526064016102b0565b60048290556040518281527fbf8f7f1c25462e34da8d09b4a01adb909b708cf79392f9b5a522823f6adcf2b39060200160405180910390a15050565b600660205281600052604060002081815481106103e157600080fd5b906000526020600020016000915091505080546103fd90610d77565b80601f016020809104026020016040519081016040528092919081815260200182805461042990610d77565b80156104765780601f1061044b57610100808354040283529160200191610476565b820191906000526020600020905b81548152906001019060200180831161045957829003601f168201915b505050505081565b610486610a2b565b6104906000610a85565b565b6001600160a01b038216600090815260066020908152604080832080548251818502810185019093528083528493849084015b828210156105715783829060005260206000200180546104e490610d77565b80601f016020809104026020016040519081016040528092919081815260200182805461051090610d77565b801561055d5780601f106105325761010080835404028352916020019161055d565b820191906000526020600020905b81548152906001019060200180831161054057829003601f168201915b5050505050815260200190600101906104c5565b50505050905060008151111561067b576000805b82518110156106785760008382815181106105a2576105a2610db1565b60200260200101515111156106665760015460025484516001600160a01b03928316926393eaab8a9216908690859081106105df576105df610db1565b6020026020010151886040518463ffffffff1660e01b815260040161060693929190610dc7565b602060405180830381865afa158015610623573d6000803e3d6000fd5b505050506040513d601f19601f820116820180604052508101906106479190610dfb565b91508060000361065957819350610666565b6106638483610ad5565b93505b8061067081610e2a565b915050610585565b50505b5092915050565b6001600160a01b0381166000908152600660209081526040808320805482518185028101850190935280835260609492939192909184015b828210156107665783829060005260206000200180546106d990610d77565b80601f016020809104026020016040519081016040528092919081815260200182805461070590610d77565b80156107525780601f1061072757610100808354040283529160200191610752565b820191906000526020600020905b81548152906001019060200180831161073557829003601f168201915b5050505050815260200190600101906106ba565b505050509050919050565b826001600160a01b0381166107985760405162461bcd60e51b81526004016102b090610e43565b6107a0610a2b565b6001600160a01b038416600090815260066020526040902054156107df576001600160a01b03841660009081526006602052604081206107df91610aed565b60005b828110156108885760008484838181106107fe576107fe610db1565b90506020028101906108109190610e69565b90501115610876576001600160a01b038516600090815260066020526040902084848381811061084257610842610db1565b90506020028101906108549190610e69565b825460018101845560009384526020909320909201916108749183610f1c565b505b8061088081610e2a565b9150506107e2565b507f77ceeb099e903c2265a650887816031b6ef5a8aa4c84d7f5f8f1574eff43301e8484846040516108bc93929190611006565b60405180910390a150505050565b826001600160a01b0381166108f15760405162461bcd60e51b81526004016102b090610e43565b826001600160a01b0381166109185760405162461bcd60e51b81526004016102b090610e43565b826001600160a01b03811661093f5760405162461bcd60e51b81526004016102b090610e43565b610947610a2b565b5050600380546001600160a01b039586166001600160a01b03199182161790915560018054948616948216949094179093555060028054919093169116179055565b6000670de0b6b3a7640000826004546109a291906110b5565b6109ac91906110d4565b92915050565b6109ba610a2b565b6001600160a01b038116610a1f5760405162461bcd60e51b815260206004820152602660248201527f4f776e61626c653a206e6577206f776e657220697320746865207a65726f206160448201526564647265737360d01b60648201526084016102b0565b610a2881610a85565b50565b6000546001600160a01b031633146104905760405162461bcd60e51b815260206004820181905260248201527f4f776e61626c653a2063616c6c6572206973206e6f7420746865206f776e657260448201526064016102b0565b600080546001600160a01b038381166001600160a01b0319831681178455604051919092169283917f8be0079c531659141344cd1fd0a4f28419497f9722a3daafe3b4186f6b6457e09190a35050565b6000818310610ae45781610ae6565b825b9392505050565b5080546000825590600052602060002090810190610a2891905b80821115610b24576000610b1b8282610b28565b50600101610b07565b5090565b508054610b3490610d77565b6000825580601f10610b44575050565b601f016020900490600052602060002090810190610a2891905b80821115610b245760008155600101610b5e565b600060208284031215610b8457600080fd5b5035919050565b80356001600160a01b0381168114610ba257600080fd5b919050565b60008060408385031215610bba57600080fd5b610bc383610b8b565b946020939093013593505050565b6000815180845260005b81811015610bf757602081850181015186830182015201610bdb565b81811115610c09576000602083870101525b50601f01601f19169290920160200192915050565b602081526000610ae66020830184610bd1565b600060208284031215610c4357600080fd5b610ae682610b8b565b6000602080830181845280855180835260408601915060408160051b870101925083870160005b82811015610ca157603f19888603018452610c8f858351610bd1565b94509285019290850190600101610c73565b5092979650505050505050565b600080600060408486031215610cc357600080fd5b610ccc84610b8b565b9250602084013567ffffffffffffffff80821115610ce957600080fd5b818601915086601f830112610cfd57600080fd5b813581811115610d0c57600080fd5b8760208260051b8501011115610d2157600080fd5b6020830194508093505050509250925092565b600080600060608486031215610d4957600080fd5b610d5284610b8b565b9250610d6060208501610b8b565b9150610d6e60408501610b8b565b90509250925092565b600181811c90821680610d8b57607f821691505b602082108103610dab57634e487b7160e01b600052602260045260246000fd5b50919050565b634e487b7160e01b600052603260045260246000fd5b6001600160a01b0384168152606060208201819052600090610deb90830185610bd1565b9050826040830152949350505050565b600060208284031215610e0d57600080fd5b5051919050565b634e487b7160e01b600052601160045260246000fd5b600060018201610e3c57610e3c610e14565b5060010190565b6020808252600c908201526b7a65726f206164647265737360a01b604082015260600190565b6000808335601e19843603018112610e8057600080fd5b83018035915067ffffffffffffffff821115610e9b57600080fd5b602001915036819003821315610eb057600080fd5b9250929050565b634e487b7160e01b600052604160045260246000fd5b601f821115610f1757600081815260208120601f850160051c81016020861015610ef45750805b601f850160051c820191505b81811015610f1357828155600101610f00565b5050505b505050565b67ffffffffffffffff831115610f3457610f34610eb7565b610f4883610f428354610d77565b83610ecd565b6000601f841160018114610f7c5760008515610f645750838201355b600019600387901b1c1916600186901b178355610fd6565b600083815260209020601f19861690835b82811015610fad5786850135825560209485019460019092019101610f8d565b5086821015610fca5760001960f88860031b161c19848701351681555b505060018560011b0183555b5050505050565b81835281816020850137506000828201602090810191909152601f909101601f19169091010190565b6001600160a01b0384168152604060208083018290529082018390526000906060600585901b840181019190840186845b878110156110a757868503605f190183528135368a9003601e1901811261105d57600080fd5b8901848101903567ffffffffffffffff81111561107957600080fd5b80360382131561108857600080fd5b611093878284610fdd565b965050509183019190830190600101611037565b509298975050505050505050565b60008160001904831182151516156110cf576110cf610e14565b500290565b6000826110f157634e487b7160e01b600052601260045260246000fd5b50049056fea26469706673582212203b3893c712244680e2223a753ea5140853ae1b1c56b534e2ed6832d62b847bdc64736f6c634300080f0033",
  "linkReferences": {},
  "deployedLinkReferences": {}
}